:100000000C948E000C94461D0C94AB000C94AB0029
:100010000C94AB000C94AB000C94AB000C94AB00B4
:100020000C94AB000C94AB000C94AB000C94AB00A4
:100030000C94AB000C94AB000C94AB000C94AB0094
:100040000C94AB000C94AB000C94AB000C94AB0084
:100050000C94AB000C94AB000C94AB000C94AB0074
:100060000C94AB000C94AB000C94AB000C94AB0064
:100070000C94AB000C94AB000C94AB004B164F16D9
:10008000BF162F178F17EF174F1825192A192F1979
:10009000321936193919411949194D19501954197C
:1000A0005D1964196819701977197B19040309041B
:1000B0002A0349006E00660069006E006900740042
:1000C00065004E00650073004C0069007600650015
:1000D00073002E0063006F006D001E0349004E0088
:1000E0004C00200052006500740072006F002D006B
:1000F000500072006F00670012011001FF0000083D
:10010000C016DC0501020102000109021200010112
:1001100000806409040000000000000011241FBEDC
:10012000CFEFD4E0DEBFCDBF11E0A0E0B1E0E8EB5F
:10013000FCE302C005900D92A630B107D9F713E099
:10014000A6E0B1E001C01D92A63EB107E1F70E9412
:10015000830E0C945A1E0C940000F9018C3011F09F
:100160008AE8089581E0808383E0818380E00895B8
:100170000F931F93CF93DF93FC01062F122F242F91
:1001800030E0A12FB0E0CD01820F931F419714F012
:100190008EEB4BC0112311F482EC47C083818F3F5B
:1001A00011F08FEB42C082818F3F11F080EC3DC097
:1001B000B901675A7E4FEB0190E006C089918F3FED
:1001C00011F081EC32C09F5F9117C0F3028313825C
:1001D00095E0AA0FBB1F9A95E1F78A2F815086837D
:1001E0001782108611821082118612861386148659
:1001F00015861686178685E0220F331F8A95E1F74C
:100200008091000190910101820F931F9583848357
:1002100050E0410F511D475A5E4F03C0FB0101934F
:10022000BF0164177507D1F780E0DF91CF911F916F
:100230000F91089520914C0180912B018F3F11F077
:1002400092E004C090E02F3F09F091E080913C01E2
:100250008F3F09F093E0809118018F3F09F094E0FF
:10026000892F08959C01623049F481E029343807D0
:10027000D1F081E02832380769F52AC0633069F48B
:1002800081E02934380779F081E02832380791F08D
:1002900081E029333807F1F41BC06430D9F481E0E0
:1002A0002934380719F428E231E014C081E02832FB
:1002B000380719F429E331E00DC081E0293338070C
:1002C00019F425E131E006C081E02531380711F449
:1002D00029E431E0C9010895E9E5F1E08FEF819368
:1002E00091E0E936F907D9F780934C0180932B010F
:1002F00080934B0180932A0180933C0180931801E5
:1003000080933B018093170181E00E94311608958C
:100310000F931F93CF93DF93EC01FB01D901009161
:100320004D0110914E0198819078903819F48E818A
:100330008C9305C08FEF8C938E818093380144237A
:1003400041F5E0912501F0912601903861F4838117
:10035000883D21F404811581938316C0803D79F096
:100360008FEF8C930EC08381882339F4F0936A0356
:10037000E093690380E9838307C0883911F41C92F4
:1003800003C080E10E943116E0912501F091260121
:100390000CC0903821F404811581938306C0F0933A
:1003A0006A03E093690380E983831782E091250162
:1003B000F091260183818039F1F48A81813711F02F
:1003C0008034C9F4E0916903F0916A030480F581F7
:1003D000E02D8C818083E0916903F0916A030480B1
:1003E000F581E02D8D818183E0916903F0916A03AD
:1003F00087818E5F8783C801DF91CF911F910F9115
:100400000895CF93DF93DC01EB019A0112964C9192
:100410001297842F80538033B0F413968C911397E6
:10042000813041F0813078F0823039F0833009F04A
:10043000AFC006C0E8E2F1E008C0E9E3F1E005C0C2
:10044000E5E1F1E002C0E9E4F1E0413509F466C01C
:10045000423590F4413349F1423330F44423D1F032
:10046000403309F0B9C019C0433381F1433330F14F
:10047000403509F0B1C043C0403808F06DC0403786
:1004800008F064C0403631F1413679F1423509F067
:10049000A3C054C00E946C010FC015968C91159793
:1004A000818714968C91828707C015968C91159739
:1004B000838714968C918487188290C015968C91AE
:1004C0001597858714968C918687F6CF14968C9114
:1004D0008787F2CF188281E089831496ED91FC9191
:1004E0001597E75AFE4F808108C0188281E0898302
:1004F000E0912501F091260183818A836FC01882E3
:1005000086E0898386818A8383818B8387818C833C
:1005100080858D8382818E8387850EC0188286E0D8
:10052000898381858A8382858B8383858C83848577
:100530008D8385858E8386858F8350C0188282E067
:10054000898380818A8381818B8348C0CD01BF01EB
:1005500040E00E94880143C0842F90E08770907033
:100560008130910579F0823091051CF4892B91F04E
:100570000FC08230910519F0039751F406C0E9E3EA
:10058000F1E00AC0E8E2F1E007C0E5E1F1E004C013
:1005900085EB23C0E9E4F1E0403800F1483820F071
:1005A0004059483068F01AC014964C91149715962B
:1005B0006C911597CF0113962C910E94B8000DC035
:1005C000188213968C911397808714968D919C9125
:1005D00015979183808302C084EB8883CE01DF91DD
:1005E000CF9108950F931F93CF93DF930E943716F7
:1005F000823D21F00E943716823F51F40E941A0179
:100600008093060189E491E090932601809325016F
:100610000E943716823DC1F40091060111E009C025
:10062000CF01602F0E943201909326018093250113
:100630001F5FE0912501F0912601101788F380E8F3
:10064000838380ED0E9431160E943716823F41F469
:1006500080EF0E943116E0912501F091260113826E
:100660000E943716182F803D21F5E0912501F09169
:10067000260183818038E9F4CF01609106010E9450
:100680003201FC0190932601809325011782138388
:100690000E948803E0912501F0912601882341F40E
:1006A000808520813181280F311D3183208388EDA1
:1006B00083830E943716182F803F19F5C0912501BA
:1006C000D09126018B818839E1F4CE016091060139
:1006D0000E943201FC019093260180932501138230
:1006E0001B83CE010E947409882311F08B8309C0FB
:1006F00084EF8B83288588819981820F911D99834E
:100700008883DF91CF911F910F91089588E8089514
:10071000EF920F931F93CF93DF93EC010881198120
:10072000E02E8985813209F43FC0823288F482311B
:1007300009F4ACC0833130F4803109F464C08131F4
:10074000C1F48BC0833109F4ACC0803291F413C082
:10075000843209F44EC0853228F48232C1F18332EA
:1007600041F437C0813321F1823379F0853209F4C5
:1007700043C083ECBCC06D85603108F0B5C06295A4
:10078000607F602B8C819D8186C06D85603108F013
:10079000ABC06295607F602B8C819D814A812E81E8
:1007A0000FEF0E94EF139EC09D85892F837C14C09C
:1007B0009D85892F837C09F097C0E92A8C819D81D2
:1007C0006E2D4A812E810FEF0E946D138BC08D8597
:1007D0005EC09D85892F807C882309F085C0E92A29
:1007E0008C819D816E2D4A812E810FEF0E94B7135F
:1007F00079C08D85E82A6CC08D85E82A8C819D8121
:100800006E2D41E069C08D858E3179F480E8E82A4B
:1008100036E0169507953A95E1F780E090EC602F69
:100820000E94FB0E8FEBE82233C08C3109F05EC0D2
:1008300080E090E561E80E94FB0E000F012F001F91
:10084000110B119580E090E8602F0E94FB0E80E074
:1008500090E560E00E94FB0E49C08D858E3F09F057
:1008600045C095E0169507959A95E1F78FEF9FE3C0
:10087000602F0E94530F8FE1E8228C819D816E2DA5
:100880004A812E810FEF0E9436132CC080E6E82AA1
:100890008C819D816E2D4A812E810FEF0E94421422
:1008A00021C08D85882349F480E8E82A000F012FB4
:1008B000001F110B1195602F05C0813019F4612FB5
:1008C0006F7360648FEF84B965B95F9A5F9814B8ED
:1008D0008C819D816E2D40E02A810E81EE24EA9468
:1008E0000E948C1A8F8302C084EC01C080E0DF91EB
:1008F000CF911F910F91EF900895CF92DF92EF92D9
:10090000FF920F931F93CF93DF937B016A01DB016B
:1009100017969C91092F10E0D82FC0E010C0822FAD
:1009200090E0D7011496ED91FC911597E80FF91F0F
:100930008C2B9D2B6081F60109950F5F1F4F202F97
:10094000F701868190E08017910748F7078380E0E0
:10095000DF91CF911F910F91FF90EF90DF90CF909B
:1009600008956F927F929F92AF92BF92CF92DF9243
:10097000EF92FF920F931F93CF93DF937B013A0186
:10098000DB0117969C90C92CDD24D82FC0E089E2AA
:10099000A82EB12C2FC0092D10E0D7011496ED918F
:1009A000FC911597E00FF11FC8018C2B9D2B6081E6
:1009B000F3010995D7011496ED91FC911597E00F7D
:1009C000F11F9081891741F08AB18260F50181831E
:1009D0008BB1826082830EC08AB18D7FD501119662
:1009E0008C9311978BB1826012968C939394089498
:1009F000C11CD11CF701868190E08C159D0558F62D
:100A0000978280E0DF91CF911F910F91FF90EF903F
:100A1000DF90CF90BF90AF909F907F906F900895A0
:100A20004F925F926F927F928F929F92AF92BF92FE
:100A3000CF92DF92FF920F931F93CF93DF93F62E07
:100A40003A01E9012801DA0117968C91882E992440
:100A5000A895000000000000000000000000000059
:100A6000000000008AEA9AE86AEA40E0F901099584
:100A700085E595E865E540E0FE0109958AEA9AE892
:100A800060E240E0FE010995BF2CAA2479C080EA0B
:100A900060E00E94BA1910E06801CA28DB28D3017F
:100AA0001496ED91FC911597E00FF11FC60160813E
:100AB00040E0FE0109950000000000000000000079
:100AC0000000000000000000A8950E94281CC6013C
:100AD00060E0F2010995F82E00000000000000001F
:100AE00000000000000000000000D3011496ED910A
:100AF000FC911597E00FF11F8081F81609F43DC0B5
:100B000000000000000000000000000000000000E5
:100B1000000023C0000000000000000000000000F2
:100B200000000000000000000000000000000000C5
:100B300000000000000000000000000000000000B5
:100B400000000000000000000000000000000000A5
:100B5000C60160E0F2010995F82EC60160E0F201DD
:100B60000995F81609F0D6CF00000000000000003B
:100B7000000000000000000000000894811C911C8F
:100B8000082DF301868190E08815990508F07FCF44
:100B9000878280E090E860E940E0FE01099580E00E
:100BA00090E860E040E0FE01099580E090E860EFA9
:100BB00040E0FE010995000080E0DF91CF911F9198
:100BC0000F91FF90DF90CF90BF90AF909F908F904C
:100BD0007F906F905F904F9008952F923F924F9229
:100BE0005F926F927F928F929F92AF92BF92CF92BD
:100BF000DF92EF92FF920F931F93CF93DF93F62E26
:100C00004A0169011801DA011796EC906E2C7724DD
:100C10008AEA9AE06AEAF901099585E595E065E5D1
:100C2000F60109958AEA9AE060E2F6010995BF2C7F
:100C3000AA2499E2492E512C42C0CE2DD0E08E013B
:100C40000A291B29C80160EAF6010995D401149606
:100C5000ED91FC911597EC0FFD1FC8016081F60125
:100C600009950E94281CC801F1010995F82EC801B8
:100C7000F1010995F816A9F7D4011496ED91FC91AC
:100C80001597EC0FFD1F8081F81679F4E394089412
:100C9000611C711C8AB18D7FF20181838BB18260EE
:100CA00082838BB18D7F82830AC08AB18260D20138
:100CB00011968C9311978BB1826012968C93F401EC
:100CC000868190E08615970508F0B7CFE78280E02F
:100CD00090E060E9F601099580E090E060E0F601BF
:100CE000099580E090E060EFF601099580E0DF91E2
:100CF000CF911F910F91FF90EF90DF90CF90BF9019
:100D0000AF909F908F907F906F905F904F903F90AB
:100D10002F9008952F923F924F925F926F927F9201
:100D20008F929F92AF92BF92CF92DF92EF92FF92FB
:100D30000F931F93CF93DF93F62E4A016901180199
:100D4000DA011796EC906E2C77248AEA9AE86AEA20
:100D5000F901099585E595E865E5F60109958AEAC1
:100D60009AE860E2F6010995BF2CAA2429E2422EF6
:100D7000512C42C0CE2DD0E08E010A291B29C8017A
:100D800060EAF6010995D4011496ED91FC9115974E
:100D9000EC0FFD1FC8016081F60109950E94281C17
:100DA000C801F1010995F82EC801F1010995F8165D
:100DB000A9F7D4011496ED91FC911597EC0FFD1F46
:100DC0008081F81679F4E3940894611C711C8AB14F
:100DD0008D7FF20181838BB1826082838BB18D7FA5
:100DE00082830AC08AB18260D20111968C931197D6
:100DF0008BB1826012968C93F401868190E0861507
:100E0000970508F0B7CFE78280E090E860E9F60147
:100E1000099580E090E860E0F601099580E090E8AF
:100E200060EFF601099580E0DF91CF911F910F915E
:100E3000FF90EF90DF90CF90BF90AF909F908F90FA
:100E40007F906F905F904F903F902F9008952F92DA
:100E50003F924F925F926F927F928F929F92AF924A
:100E6000BF92CF92DF92EF92FF920F931F93DF9387
:100E7000CF9300D00F92CDB7DEB78983F62E4A010B
:100E800069011801DA011796EC906E2C77248AEA32
:100E90009AE86AEAF901099585E595E865E5F601BC
:100EA00009958AEA9AE860E2F6010995BF2CAA241E
:100EB00039E2432E512C5EC080E090E564E50E944B
:100EC000FB0EEE2DF0E0FB83EA838F010A291B293C
:100ED000C80160EAF6010995D4011496ED91FC91E0
:100EE00015978A819B81E80FF91FC8016081F6017F
:100EF00009950E94281CC801F1010995F82EC80126
:100F0000F1010995F816A9F7D4011496ED91FC9119
:100F100015978A819B81E80FF91F8081F816A1F44B
:100F2000E3940894611C711C8AB18D7FD2011196E3
:100F30008C9311978BB1826012968C9312978BB120
:100F40008D7F12968C9316C080E090E561E80E9438
:100F5000FB0E80E090E869810E94FB0E80E090E546
:100F600064E50E94FB0E8AB18260F20181838BB13D
:100F700082608283D40116968C91169790E0861534
:100F8000970508F099CF1796EC9280E090E860E919
:100F9000F601099580E090E860E0F601099580E0AF
:100FA00090E860EFF601099580E00F900F900F90A8
:100FB000CF91DF911F910F91FF90EF90DF90CF9035
:100FC000BF90AF909F908F907F906F905F904F9069
:100FD0003F902F9008952F923F924F925F926F9281
:100FE0007F928F929F92AF92BF92CF92DF92EF92B9
:100FF000FF920F931F93DF93CF93CDB7DEB729975F
:101000000FB6F894DEBF0FBECDBF89835B834A83E2
:101010003D832C8358014701DF82CE82D801179689
:10102000CC904C2C55241986188669871886682E12
:101030007724E9E6FDEF6E0E7F1E49E2242E312C67
:101040005AC089E69DEF60E00E94FB0E8A819B8179
:101050006AEAF40109958C819D8165E5F4010995A1
:101060008A819B8160EAF4010995C30169810E942C
:10107000FB0EEC2CFF24088519850E291F29D501AC
:101080001496ED91FC911597EE0DFF1DC80160813E
:10109000F40109950E94281CC801EE81FF81099581
:1010A000D82EC8012E813F81F9010995D81691F7F4
:1010B000D5011496ED91FC911597EE0DFF1D8081E1
:1010C000D81679F4C3940894411C511C8AB18D7FC1
:1010D000F10181838BB1826082838BB18D7F8283AA
:1010E0000AC08AB18260D10111968C9311978BB19D
:1010F000826012968C93F501868190E084159505A7
:1011000008F09FCFC78280E029960FB6F894DEBF23
:101110000FBECDBFCF91DF911F910F91FF90EF9048
:10112000DF90CF90BF90AF909F908F907F906F9007
:101130005F904F903F902F9008954F925F926F92E3
:101140007F928F929F92AF92BF92CF92DF92EF9257
:10115000FF920F931F93CF93DF934A012901580108
:10116000E701D80117960C91962F80E0202F30E0F0
:101170007C01E22AF32A390122C0C4016AEAFE0195
:101180000995C20165E5FE010995C40160EAFE0109
:101190000995D5011496ED91FC911597E60DF71D73
:1011A000C7016081FE0109950E94281CC701F60154
:1011B0000995182FC701F60109951817A9F7F50128
:1011C00086818017D0F6078380E0DF91CF911F9151
:1011D0000F91FF90EF90DF90CF90BF90AF909F90D6
:1011E0008F907F906F905F904F9008956F927F9255
:1011F0008F929F92AF92BF92CF92DF92EF92FF9227
:101200000F931F93CF93DF933B01DB0117969C91C4
:10121000A92EBB24F82EEE244BC08AEA9AE86AEA8B
:1012200040E00E94A11985E595E865E540E00E944F
:10123000A11910E06801CE28DF28C60165E240E070
:101240000E94A119C6016FE140E00E94A119E801C6
:10125000CE0DDF1D50E2852E912C800E911ED30104
:101260001496ED91FC911597E00FF11FCE0160816E
:1012700040E00E94A1190F5F1F4F21960815190524
:1012800071F7C60169E240E00E94A119C70160E060
:101290000E948519082FC70160E00E948519182F48
:1012A0000E94281C011791F7E0E2F0E0AE0EBF1E8D
:1012B0000A2DD30116968C91169790E08A159B05FE
:1012C00008F0ABCF1796AC9280E0DF91CF911F91E1
:1012D0000F91FF90EF90DF90CF90BF90AF909F90D5
:1012E0008F907F906F900895BF92CF92DF92EF9290
:1012F000FF920F931F93CF93DF93EC01B880898502
:10130000823109F451C1833128F4803159F081319F
:1013100039F4F9C0833109F44FC1843109F4C8C1EB
:1013200083ECC7C18D85882339F48B2D8058BE018D
:101330004EE053E10E94B1048D85813039F48B2D4C
:101340008058BE0140EA52E10E947D048D858230C2
:1013500039F48B2D8058BE0144E352E10E947D0494
:101360008D85843039F48B2D8058BE014EEB51E1D0
:101370000E94B1048D858C3F39F48B2D8058BE01BD
:101380004EEA5FE00E94B1048D858A3039F48B2DDE
:101390008058BE014CE351E10E94B1048D858D3F20
:1013A000D9F48FE3B82280E8B82A88819981E6E0F1
:1013B00096958795EA95E1F76B2D45E555E52AEA7F
:1013C0003AE28E017DEBE72E7EE0F72E99EEC92EF4
:1013D0009EE0D92E0E94EB078D858E3139F48B2D3E
:1013E0008058BE0143E650E10E94B1048D858C30E7
:1013F00031F58FE1B82280E8B82A08811981B5E07B
:1014000016950795BA95E1F780E090E665EA0E94A7
:10141000FB0E8FEF9FEF602F0E94FB0E80E06B2D85
:1014200045E555ED2AEA3AEA8E01ABEFEA2EAEE049
:10143000FA2EF9EECF2EFEE0DF2E0E949D088D855C
:101440008C3129F58AEA9AE86AEA0E942A0F85E532
:1014500095E865E50E942A0F8AEA9AE860E20E9410
:101460002A0F8B2D8058BE0142E150E10E94B10449
:1014700080E090E860E90E942A0F80E090E860E058
:101480000E942A0F80E090E860EF0E942A0F8D856D
:10149000873239F48B2D8058BE0144E350E10E941D
:1014A0007D048D858F3129F58AEA9AE96AEA0E94DE
:1014B0002A0F85E595E965E50E942A0F8AEA9AE9EF
:1014C00060E20E942A0F8B2D8057BE0146EF5FE03D
:1014D0000E94B10480E090E960E90E942A0F80E058
:1014E00090E960E00E942A0F80E090E960EF0E949E
:1014F0002A0F8D858F3639F48B2D8058BE0140EB35
:101500005FE00E94B1048D85882331F48B2DBE01EC
:1015100047EE52E10E947D048D85813031F48B2DA0
:10152000BE014CE652E10E947D048D85833031F48A
:101530008B2DBE014BEE51E10E947D048D858430E0
:1015400031F48B2DBE0147E951E10E947D048D8568
:101550008A3031F48B2DBE014FEF50E10E947D04A3
:101560008D858B3031F48B2DBE0140EA50E10E9415
:101570007D048D858E3F09F09BC068817981E5E00F
:1015800076956795EA95E1F78FEF9FE30E94530FF9
:101590008FE1B82280E06B2DAE012AE73FE008E63C
:1015A0001FE00E94ED0584C08B2D805ABE014BEFD9
:1015B0005EE00E947D047CC08D85843039F48B2DE3
:1015C0008058BE0145E25AE10E947D048D85853038
:1015D00031F48B2DBE0145E25AE10E947D048D85D8
:1015E000863039F48B2D8058BE0148EF59E10E94B6
:1015F0007D048D85873031F48B2DBE0148EF59E194
:101600000E947D048D858A3039F48B2D8058BE016F
:101610004AEC59E10E94B1048D858B3031F48B2D59
:10162000BE014AEC59E10E94B1048D85883039F43D
:101630008B2D8058BE0149EC59E10E94F6088D853A
:10164000893031F48B2DBE0149EC59E10E94F60836
:101650008D858823C1F480E8B82A88819981880F14
:10166000892F881F990B91952FEF24B985B95F9A1F
:101670005F9814B880E06B2DAE0121EA39E105E8EE
:1016800019E10E9410058D85813091F489818F7355
:1016900080649FEF94B985B95F9A5F9814B880E031
:1016A0006B2DAE0121EA39E105E819E10E94100530
:1016B00080E0DF91CF911F910F91FF90EF90DF902D
:1016C000CF90BF9008953898409A3998419A3A98A7
:1016D000429A3C98449A3D98459A3E98469A539827
:1016E0005B9A55985D9A3B98439A3F98479A5798CA
:1016F0005F9A5098589814B88FEF85B93F9A4798D9
:1017000081B911B882B914B885B914B885B951989E
:10171000599A08950E94630B419A399A4098389AD1
:10172000429A3A9A449A3C9A459A3D9A14B88FEF55
:1017300085B914B885B914B885B93F9A479881B965
:1017400012B884B915B8479A479814B808950E94FA
:10175000630B399A419A3C9A449A3D9A459A589A11
:10176000509A14B88FEF85B914B885B914B885B9F3
:101770003F9A479881B912B884B915B8479A4798E3
:1017800014B814B885B9579A5F9884B915B85F9A98
:101790005F9814B808955898509A000089B15098ED
:1017A000589880FF02C080EF08955098589A89B1E8
:1017B00059B1000049B10000000039B1000000003B
:1017C000000029B1000000000000000099B150980D
:1017D000589880FF02C080E0089550FF02C081E069
:1017E000089540FF02C083E0089530FF02C086E004
:1017F000089520FF02C08AE0089590FD02C080EEA7
:1018000008958FE00895813021F0823049F088E911
:10181000089514B88FEF85B9579A5F980E943C0CD1
:101820000E943C0C80E00895CF93DF93E901823061
:1018300099F0833028F4882349F0813029F409C0D5
:10184000843069F0803879F086E913C00E94630B18
:101850000FC00E948A0B0CC00E94A70B09C0842FE6
:101860000E94030C06C081E088830E94CB0B898311
:1018700080E0DF91CF910895109214018FEF84B929
:1018800015B85F9A5F9814B85098589A10927A03D6
:10189000EBE7F3E0119283E0EB39F807D9F780E842
:1018A00080936C030895FF920F931F93CF93DF9360
:1018B000682F50917A0310921401803129F0813100
:1018C00019F482E0809314018FEF84B99091140190
:1018D00095B95F9A5F9814B830E020E0A3E2B0E0D9
:1018E000FF24FA94C9E2D0E07FEF603229F5E32FBC
:1018F000F0E0E558FC4F808190E0022E02C0959503
:1019000087950A94E2F780FF02C092E001C090E060
:101910001196FC92119712969C9312978BB1806846
:101920008A838BB18F778A8311961C9211972F5FD0
:10193000283011F43F5F20E0492F4460E3E2F0E0FB
:1019400011967C93119712964C93129709E210E02E
:101950008BB180688A838BB18F778A8311961C92B2
:101960001197515011967C93119712969C93129750
:101970008BB180688A838BB18F778A8311961C9292
:101980001197552309F0B1CF40932701909314018B
:101990008FEF818312828BB18068D80112968C936D
:1019A00012978BB18F7712968C931182DF91CF9122
:1019B0001F910F91FF900895AF92BF92CF92DF9247
:1019C000EF92FF920F931F93CF93DF93182FC62EA2
:1019D000D42E60917A0300917B0310921401803120
:1019E00029F0813119F481E0809314018FEF84B9DB
:1019F0005091140155B95F9A5F9814B840E070E0B7
:101A0000A3E2B0E0AA24AA94C9E2D0E081E0E82EE3
:101A1000F12CBB24BA941032E1F4802F90E0072E11
:101A200002C0959587950A94E2F780FF02C0516045
:101A300001C05E7F1196AC92119712965C9312973B
:101A40008BB180688A838BB18F778A8311961C92C1
:101A5000119780E2C816B9F4772329F4E42FF0E057
:101A6000E558FC4F1082489B0EC0E42FF0E0E5588B
:101A7000FC4F9701072E02C0220F331F0A94E2F792
:101A80008081822B80836150DD2091F0662381F478
:101A900052601196AC92119712965C9312978BB18B
:101AA00080688A838BB18F778A8311961C921197F5
:101AB000952F94601196BC92119712969C93129751
:101AC0008BB180688A838BB18F778A8311961C9241
:101AD00011971196BC92119712965C9312978BB145
:101AE00080688A838BB18F778A8311961C921197B5
:101AF0007F5F783039F44F5FE42FF0E0E558FC4F1A
:101B0000008170E0662309F086CF909327015093FF
:101B100014018FEF84B915B85F9A5F9814B8DF91FC
:101B2000CF911F910F91FF90EF90DF90CF90BF90DA
:101B3000AF90089580916C03833809F079C080914B
:101B40006D03883009F467C08930A0F48330D1F187
:101B5000843030F4813029F1823009F066C026C02B
:101B6000863009F445C0873008F050C0843009F051
:101B70005CC02FC08F30B9F1803130F48D30E1F08E
:101B80008E3009F052C02AC0803831F08F3F39F0D2
:101B9000803109F04AC031C00E943C0C089580EFAA
:101BA00041C081E880936C0380E239C081E8809372
:101BB0006C0380E260E00BC081E880936C0380E2FC
:101BC00060E020C081E880936C0380E160E241E046
:101BD0001AC081E880936C0381E1F8CF81E880939B
:101BE0006C0380E10EC081E880936C0381E109C041
:101BF00081E880936C0380E2E9CF81E880936C03F5
:101C000080E260E240E00E94DC0C0BC081E880933F
:101C10006C0380E104C081E880936C0381E10E9441
:101C2000530C82E880936C0308958EEE80936C03CE
:101C30000895CF93DF93782FE901843041F1853007
:101C400038F48230B9F08330D8F4813061F40DC0BB
:101C5000873029F1883018F4853029F41DC0883088
:101C600029F18930B1F187E841C080916D03898302
:101C700078833BC040936D0383E880936C0335C049
:101C800040936D0383E880936C030E949A0D8091CA
:101C90006C03898381E028C040937A0326C0E62F35
:101CA000F0E0E558FC4F408351831FC0862F90E041
:101CB000FC01E558FC4FD901BC016D577C4F819167
:101CC00011968C9311971196E617F707C1F788E0E4
:101CD0000BC0ABE7B3E0F9018D918183319683E0CE
:101CE000AB39B807C9F780E2888380E0DF91CF91F4
:101CF000089584B7877F84BFE0E6F0E08081886143
:101D00008083108208952EE088E190E00FB6F89469
:101D1000A895809360000FBE209360000E94211C54
:101D2000549A20E040EA5FE004C0A895CA010197F8
:101D3000F1F72150D1F7549878940E94630B80EF0B
:101D400080936C03A8950E94281C0E94F202809147
:101D50006C03803FB9F30E949A0DF4CF82B98FEFE4
:101D600084B995B9479A479814B884B965B9509A17
:101D700058985098589A14B8089582B98FEF84B93A
:101D800095B9479A479814B884B965B9509A589844
:101D9000589A14B80895509858984098419A429A81
:101DA00082B92FEF24B995B9479A479814B8000023
:101DB000000097FF03C0409A419801C0409A00007C
:101DC0000000000000000000000083B14098419A2C
:101DD000089582B92FEF24B995B9479A479814B856
:101DE00097FD4198409A000000000000000083B178
:101DF0004098419A08955098589882B92FEF24B985
:101E000095B9479A479814B8429824B965B997FD8F
:101E10004198409A0000000000000000000000000F
:101E20000000000000004098419A429A14B80895BA
:101E300082B92FEF24B995B9479A479814B84298B8
:101E400024B965B997FD419800000000419A429A73
:101E500014B80895409A82B92FEF24B995B9479ADA
:101E6000479814B8429824B965B997FD4198000085
:101E70000000419A429A14B8409808959C0180E26B
:101E80002030380708F4306822B98FEF84B935B9AB
:101E9000479A479814B844980000000000000000DA
:101EA00083B1449A08959C0180E22030380708F4F9
:101EB000306822B98FEF84B935B9479A479814B87A
:101EC00084B965B9000045980000459A14B8089592
:101ED00082B98FEF84B995B9479A479814B8409A58
:101EE0004198449800000000000083B1449A409853
:101EF000419A089582B98FEF84B995B9479A479866
:101F000014B84098419884B965B90000459800001C
:101F1000459A14B8419A08950F931F93CF93DF9376
:101F2000EC01062F442349F080E090E80E94E90E7E
:101F300080E090E860E80E94FB0E10E0CE010E9475
:101F4000E90ECE01602F0E94FB0E06951F5F153033
:101F5000A9F7DF91CF911F910F91089580E0089527
:101F60001F93CF93DF93EC01162F80E090E56091F3
:101F70009E030E94FB0E85E595ED6AEA0E94FB0E2A
:101F80008AEA9AEA65E50E94FB0E85E595ED60EA2E
:101F90000E94FB0ECE01612F0E94FB0ECE010E941B
:101FA000E90E8117D9F7DF91CF911F910895FF9224
:101FB0000F931F938C01F62E82E091E562E00E9460
:101FC000FB0E83E091E561E00E94FB0E82E091E56B
:101FD00062E00E94FB0EC8016F2D0E94FB0EC8013B
:101FE0000E94E90E1F910F91FF9008951F93CF93C8
:101FF000DF93EC01162F60EA0E942A0FCE01612FB9
:102000000E942A0FCE010E94E90E182F0E94281C60
:10201000CE010E94E90E1817A9F7812FDF91CF9109
:102020001F9108951F93CF93DF93EC01162F80E04B
:1020300090E564E50E94FB0ECE0160EA0E942A0F43
:10204000CE01612F0E942A0FCE010E94E90E182FA7
:102050000E94281CCE010E94E90E1817A9F7812FB3
:10206000DF91CF911F9108951F93CF93DF93EC01E0
:10207000162F85E595ED6AEA0E942A0F8AEA9AEA08
:1020800065E50E942A0F85E595ED60EA0E942A0F1A
:10209000CE01612F0E942A0FCE010E94E90E182F57
:1020A0000E94281CCE010E94E90E1817A9F7CC5FE8
:1020B000DF4F21F480E090E80E94E90E812FDF914C
:1020C000CF911F9108951F93CF93DF93EC01162FAB
:1020D00080E090EC61E00E94FB0E85E595E96AEAFC
:1020E0000E94FB0E80E090EC60E00E94FB0E8AEA0A
:1020F0009AEA65E50E94FB0E80E090EC61E00E94A8
:10210000FB0E85E595E960EA0E94FB0E80E090EC0D
:1021100060919E030E94FB0ECE01612F0E94FB0E78
:10212000CE010E94E90E182F0E94281CCE010E94A9
:10213000E90E1817A9F7812FDF91CF911F9108950C
:102140001F93CF93DF93EC01162F80919D0390E0B6
:10215000880F991F20919B0330919C03820F931F3E
:1021600060E20E94FB0E85E595E16AEA0E94530F4A
:1021700020919D0380919B0390919C03820F911D60
:1021800060E10E94FB0E8AEA9AE065E50E94530F27
:1021900080919D0390E0880F991F20919B033091BF
:1021A0009C03820F931F60E20E94FB0E85E595E180
:1021B00060EA0E94530F60919E0380919D03689F87
:1021C000C001112420919B0330919C036295607F94
:1021D000820F931F0E94FB0ECE01612F0E94530FAE
:1021E000CE010E943E0F182F0E94281CCE010E9493
:1021F0003E0F1817A9F7DF91CF911F9108951F93F4
:10220000CF93DF93EC01162F80E090EB6AE00E9401
:10221000FB0E80E090EC6AE00E94FB0E85E595E104
:102220006AEA0E94530F8AEA9AE065E50E94530F1A
:1022300085E595E160EA0E94530F80E090EB6091A4
:102240009E030E94FB0E80E090EC60919E030E9432
:10225000FB0ECE01612F0E94530FCE010E943E0F54
:10226000182F0E94281CCE010E943E0F1817A9F7B4
:10227000DF91CF911F9108951F93CF93DF93EC01CE
:10228000162F85E595ED6AEA0E94FB0E8AEA9AEE22
:1022900065E50E94FB0E85E595ED60EA0E94FB0E68
:1022A000CE01612F0E94FB0E80E090EA60919E03B8
:1022B0000E94FB0ECE010E94E90E182F0E94281CDE
:1022C000CE010E94E90E1817A9F7812FDF91CF9157
:1022D0001F9108951F93CF93DF93EC01162F8AEA85
:1022E0009AEF6AEA0E94FB0E85E595EF65E50E948C
:1022F000FB0E8AEA9AEF60EA0E94FB0ECE01612F84
:102300000E94FB0E80E090EA60919E030E94FB0E0B
:10231000CE010E94E90E182F0E94281CCE010E94B7
:10232000E90E1817A9F7DF91CF911F9108951F9318
:10233000CF93DF93EC01162F85E595E16AEA0E94C1
:10234000530F8AEA9AE165E50E94530F85E595E10E
:1023500060EA0E94530FCE01612F0E94530FCE01FD
:102360000E943E0F182F0E94281CCE010E943E0F93
:102370001817A9F7DF91CF911F9108951F93CF935D
:10238000DF93EC01162F85E595ED6AEA0E94FB0EBE
:102390008AEA9AEA65E50E94FB0E85E595ED60EA1A
:1023A0000E94FB0ECE01612F0E94FB0E80E090E8A0
:1023B00062E00E94FB0ECE010E94E90E182F0E94DF
:1023C000281CCE010E94E90E1817A9F7812FDF9172
:1023D000CF911F9108951F93CF93DF93EC01162F98
:1023E00080919B0390919C03029662E00E94FB0EF9
:1023F00085E595E16AEA0E94530F80919B039091D5
:102400009C03019661E00E94FB0E8AEA9AE065E572
:102410000E94530F80919B0390919C03029662E06F
:102420000E94FB0E85E595E160EA0E94530F6091E2
:102430009E0380919B0390919C03860F911D0E94A7
:10244000FB0ECE01612F0E94530FCE010E943E0F62
:10245000182F0E94281CCE010E943E0F1817A9F7C2
:10246000DF91CF911F9108951F93CF93DF93EC01DC
:10247000162F80919B0390919C0360E00E94FB0EBD
:1024800085E595E56AEA0E94AE0E8AEA9AE265E57C
:102490000E94AE0E85E595E560EA0E94AE0E609161
:1024A0009E0380919B0390919C03860F911D0E9437
:1024B000FB0ECE01612F0E94AE0ECE010E94E90EEE
:1024C000182F0E94281CCE010E94E90E1817A9F7A8
:1024D000DF91CF911F9108951F93CF93DF93EC016C
:1024E000162F80E090EA62E040E00E948C0F85E5C4
:1024F00095E16AEA0E94530F8AEA9AE065E50E9434
:10250000530F85E595E160EA0E94530F80E090EA61
:1025100060919E0340E00E948C0FCE01612F0E94CB
:10252000530FCE010E943E0F182F0E94281CCE018F
:102530000E943E0F1817A9F7DF91CF911F910895C0
:102540001F93CF93DF93EC01162F80919E03883069
:1025500068F480E090EA60E040E00E948C0FCE01D9
:102560000E94E90E80E090EC60E00CC080E090EA10
:1025700060E140E00E948C0FCE010E94E90E80E0F5
:1025800090EC60E140E00E948C0F85E595ED6AEAF1
:102590000E94FB0E8AEA9AEA65E50E94FB0E85E539
:1025A00095ED60EA0E94FB0ECE01612F0E94FB0EAA
:1025B000CE010E94E90E182F0E94281CCE010E9415
:1025C000E90E1817A9F7DF91CF911F9108951F9376
:1025D000CF93DF93EC01162F85E595E16AEA0E941F
:1025E000530F8AEA9AE065E50E94530F85E595E16D
:1025F00060EA0E94530FCE01612F0E94530FCE015B
:102600000E943E0F182F0E94281CCE010E943E0FF0
:102610001817A9F7DF91CF911F9108951F93CF93BA
:10262000DF93EC01162F85E595E56AEA0E94AE0E70
:102630008AEA9AE265E50E94AE0E85E595E560EAD4
:102640000E94AE0ECE01612F0E94AE0ECE010E94FE
:10265000E90E182F0E94281CCE010E94E90E1817BF
:10266000A9F7812FDF91CF911F910895CF92DF922B
:10267000EF92FF920F931F93CF93DF936C01F42E91
:10268000E22E8FEF84B965B9479A479814B8409AFB
:102690004198449842B9000010E0C0E2D0E0002325
:1026A00019F40000000002C00E94281C83B1F6014A
:1026B000E10FF11D8083F394FA821F5FE11678F732
:1026C000449A4098419A812FDF91CF911F910F91A9
:1026D000FF90EF90DF90CF900895AF92BF92CF928E
:1026E000DF92EF92FF920F931F93CF93DF935C01E2
:1026F000F42EE22E603208F460688FEF84B965B979
:10270000479A479814B8F2B84498449A00000000D9
:10271000000010E0C6E2D0E040E2C42ED12C88B127
:102720008F7E8A8300000000002319F4000000005F
:1027300002C00E94281C83B1F501E10FF11D8083C6
:10274000F394F601F28288B180618A830000000070
:102750001F5FE11620F7812FDF91CF911F910F911D
:10276000FF90EF90DF90CF90BF90AF900895CF9201
:10277000DF92EF92FF920F931F93CF93DF936C0141
:10278000F42EE22E603208F460688FEF84B965B9E8
:10279000479A479814B84498F2B80000000010E037
:1027A000C0E2D0E0002321F400000000000002C0DD
:1027B0000E94281C83B1F601E10FF11D8083F39480
:1027C000FA821F5FE11670F7449A812FDF91CF9153
:1027D0001F910F91FF90EF90DF90CF900895AF92EF
:1027E000BF92CF92DF92EF92FF920F931F93CF93FE
:1027F000DF936C01F42EE22E8FEF84B965B9479A0E
:10280000479814B867FD4198F2B8000010E0C6E29E
:10281000D0E050E2A52EB12C88B181608A830023DC
:1028200019F40000000002C00E94281C00000000F3
:10283000000000000000000000000000000083B164
:10284000F601E10FF11D8083E6E2F0E088B18E7FB2
:102850008A83F394D5011296FC921F5FE116E0F68D
:1028600088B18E7F828388B182608283812FDF91DD
:10287000CF911F910F91FF90EF90DF90CF90BF907D
:10288000AF900895CF92DF92EF92FF920F931F9334
:10289000CF93DF936C01F42EE22E8FEF84B965B9EC
:1028A000479A479814B867FD4198409AF2B80000DB
:1028B00010E0C0E2D0E0002319F40000000002C0E4
:1028C0000E94281C000083B1F601E10FF11D8083F6
:1028D000F394FA821F5FE11670F74098419A812FB6
:1028E000DF91CF911F910F91FF90EF90DF90CF90EC
:1028F00008950F931F93CF93DF93182F092F0E94F2
:10290000111B682F812F902F8C01E801C050DF4FE1
:10291000C8010E94FB0E0E94111B682F0F5F1F4F02
:102920000C171D07A9F7DF91CF911F910F91089503
:102930009F92AF92BF92CF92DF92EF92FF920F934E
:102940001F93CF93DF93EC0180E2C030D80708F4E7
:10295000D0680E94111B982FE0E2AE2EB12C03E24A
:1029600010E099249A9476E2E72EF12CC12C61E0D4
:10297000D62ECC0EDD1EF501C283F8019182D283E2
:1029800088B18068F701828388B18F778283F801EC
:10299000118291829283000088B18F7DF70182833A
:1029A0000E94111B982F219688B18062F7018283C3
:1029B000CC15DD0501F7E3E2F0E01182DF91CF9164
:1029C0001F910F91FF90EF90DF90CF90BF90AF904D
:1029D0009F900895CF93DF93E901823109F4D6C027
:1029E0008331C8F5893009F4A1C08A30E0F484301D
:1029F00009F48CC0853050F4813009F473C0813003
:102A000008F468C0823009F063C070C0863009F4F1
:102A100065C0863008F476C0873009F49FC08830DE
:102A200009F056C09FC08D3009F490C08E3038F444
:102A30008B3009F48FC08C3008F0A4C07BC08F307D
:102A400009F480C08F3008F479C0803109F48EC059
:102A50008131F1F593C0853209F450C08632C8F453
:102A6000803209F458C0813248F4843109F482C0BC
:102A7000843108F48FC08A3159F594C08232D1F183
:102A8000823208F44BC0833209F488C0843201F5E5
:102A90004AC0843809F49CC0853870F4803809F441
:102AA00085C0813818F4863299F4B1C0813809F4B0
:102AB00083C0823869F486C0863809F494C08638A9
:102AC00008F48CC0873809F497C0883809F499C095
:102AD00080EA9EC0CA010E94AE0E99C0CA010E943F
:102AE000BD0E95C0CA010E94530F91C0CA010E9439
:102AF000FB0E8DC0CA010E94180F89C0CA010E9436
:102B00002A0F85C0CA010E947A0F81C0CA0140E025
:102B10000E948C0F7CC040939E0379C040939B031E
:102B200050939C0374C040939D0371C0CA010E94DE
:102B30000E136DC0CA010E94E71269C0CA010E944B
:102B4000A01265C0CA010E946C1261C0CA010E9435
:102B500034125DC0CA010E94EB1159C0CA010E9423
:102B6000BE1155C0CA010E94971151C0CA010E94EE
:102B70006A114DC0CA010E943C1149C0CA010E949D
:102B8000FF1045C0CA010E94A01041C0CA010E94A6
:102B900063103DC0CA010E94B00F39C0CA010E9433
:102BA000981435C0CA010E94791431C081E088832D
:102BB000CA010E94CB0E2AC081E08883CA010E940C
:102BC000E90E24C081E08883CA010E943E0F1EC026
:102BD00081E08883CA010E94680F18C081E0888361
:102BE00080919E0313C082E0888380919B03898338
:102BF00080919C038A830BC081E0888380919D0330
:102C000005C081E08883CA010E94D70F898380E0D4
:102C1000DF91CF910895CF93DF93EC01DB018A819F
:102C2000882319F08034B9F408C01C92E0910201A5
:102C3000F09103018C81808310C01C9281E0119679
:102C40008C931197E0910201F0910301808112961B
:102C50008C93129702C082ED8C93CD01DF91CF91BE
:102C60000895E0910201F091030180830895E091BD
:102C70000201F091030180810895D901E82FF0E06D
:102C8000E831F10550F4E25CFF4FEE0FFF1F0590B5
:102C9000F491E02D099480E008958CE80895473080
:102CA000510509F44CC048305105A0F4433051059A
:102CB000B1F14430510538F44130510541F1423011
:102CC000510548F520C04530510589F14630510580
:102CD00090F529C04B30510509F441C04C305105E5
:102CE00038F44930510599F14A305105A0F52BC00F
:102CF0004D305105E1F14D305105A8F145315105F7
:102D000009F001C338C03898409A80E00895399896
:102D1000419A80E008953A98429A80E008953B985D
:102D2000439A80E008953C98449A80E008953D9845
:102D3000459A80E008953E98469A80E008953F982D
:102D4000479A80E008955098589A80E008955198E5
:102D5000599A80E0089553985B9A80E008955598B9
:102D60005D9A80E0089556985E9A80E0089557989D
:102D70005F9A80E008955098589A80E0089547300F
:102D8000510509F44CC048305105A0F443305105B9
:102D9000B1F14430510538F44130510541F1423030
:102DA000510548F520C04530510589F1463051059F
:102DB00090F529C04B30510509F441C04C30510504
:102DC00038F44930510599F14A305105A0F52BC02E
:102DD0004D305105E1F14D305105A8F14531510516
:102DE00009F091C238C03898409880E00895399829
:102DF000419880E008953A98429880E008953B9881
:102E0000439880E008953C98449880E008953D9868
:102E1000459880E008953E98469880E008953F9850
:102E2000479880E008955098589880E00895519808
:102E3000599880E0089553985B9880E008955598DC
:102E40005D9880E0089556985E9880E008955798C0
:102E50005F9880E008955098589880E00895473032
:102E6000510509F444C048305105A0F443305105E0
:102E700091F14430510538F44130510531F142307F
:102E8000510530F51FC04530510559F14630510507
:102E900058F524C04B305105B1F14C30510538F490
:102EA0004930510551F14A30510550F523C04D309C
:102EB000510579F14D30510548F14531510509F081
:102EC00022C22AC0389A80E00895399A80E0089595
:102ED0003A9A80E008953B9A80E008953C9A80E019
:102EE00008953D9A80E008953E9A80E008953F9AC3
:102EF00080E00895509A80E00895519A80E0089506
:102F0000539A80E00895559A80E00895569A80E09B
:102F10000895579A80E00895509A80E008954730C8
:102F2000510509F444C048305105A0F4433051051F
:102F300091F14430510538F44130510531F14230BE
:102F4000510530F51FC04530510559F14630510546
:102F500058F524C04B305105B1F14C30510538F4CF
:102F60004930510551F14A30510550F523C04D30DB
:102F7000510579F14D30510548F14531510509F0C0
:102F8000C2C12AC0409880E00895419880E0089529
:102F9000429880E00895439880E00895449880E046
:102FA0000895459880E00895469880E008954798F0
:102FB00080E00895589880E00895599880E0089539
:102FC0005B9880E008955D9880E008955E9880E0C9
:102FD00008955F9880E00895589880E008954730FC
:102FE000510509F444C048305105A0F4433051055F
:102FF00091F14430510538F44130510531F14230FE
:10300000510530F51FC04530510559F14630510585
:1030100058F524C04B305105B1F14C30510538F40E
:103020004930510551F14A30510550F523C04D301A
:10303000510579F14D30510548F14531510509F0FF
:1030400062C12AC0409A80E00895419A80E00895C4
:10305000429A80E00895439A80E00895449A80E07F
:103060000895459A80E00895469A80E00895479A29
:1030700080E00895589A80E00895599A80E0089574
:103080005B9A80E008955D9A80E008955E9A80E002
:1030900008955F9A80E00895589A80E0089582E04C
:1030A0008C934730510509F47DC048305105B8F480
:1030B0004330510509F44EC04430510538F44130D5
:1030C0005105A1F142305105D8F526C045305105D2
:1030D00009F454C04630510508F05AC045C04B3081
:1030E000510509F487C04C30510548F44930510569
:1030F00009F46CC04A30510508F072C05DC04D3013
:10310000510509F48BC04D30510508F47DC045319F
:10311000510509F097C08CC086B190E08170907025
:1031200012969C938E93119780E0089586B190E05B
:103130008270907012969C938E93119780E0089500
:1031400086B190E08470907012969C938E93119744
:1031500080E0089586B190E08870907012969C93FC
:103160008E93119780E0089586B190E08071907001
:1031700012969C938E93119780E0089586B190E00B
:103180008072907012969C938E93119780E00895B0
:1031900086B190E08074907012969C938E931197F4
:1031A00080E0089586B190E08078907012969C93AC
:1031B0008E93119780E0089589B190E081709070AE
:1031C00012969C938E93119780E0089589B190E0B8
:1031D0008270907012969C938E93119780E0089560
:1031E00089B190E08870907012969C938E9311979D
:1031F00080E0089589B190E08072907012969C935F
:103200008E93119780E0089589B190E0807490705A
:1032100012969C938E93119780E0089589B190E067
:103220008078907012969C938E93119780E0089509
:1032300089B190E08170907012969C938E93119753
:1032400080E008951C928DE8089514B88FEF85B939
:1032500080E0089514B88FEF85B980E0089514B820
:1032600080E008958FEF84B980E0089545B980E04B
:10327000089583B111968C93119781E08C9380E02F
:10328000089514B88FEF85B93F9A479881B980E0C7
:1032900008958FEF82B980E0089511B880E0089515
:1032A0008FEF81B980E0089542B98FEF84B955B9A5
:1032B000479A479814B880E0089514B88FEF85B9FD
:1032C000579A5F9880E0089557985F9A80E0089534
:1032D0008FEF84B945B95F9A5F9814B880E008957C
:1032E00014B88FEF85B9579A5F9880E00895579882
:1032F0005F9A80E008958FEF84B945B95F9A5F982F
:1033000014B880E008958DE8089582B98FEF84B9EC
:1033100095B9479A479814B8662309F44198449898
:10332000000000000000000000000000000000009D
:103330000000000000000000000083B1449A419AA0
:10334000089582B98FEF84B995B9479A479814B810
:1033500084B965B94598442309F4419800000000F8
:10336000000000000000000000000000459A419AA3
:1033700014B808959FEF94B985B94598662309F468
:1033800041980000000000000000459A419A14B8DE
:10339000089508951F93CF93DF93EC01162F8AEAC7
:1033A0009AE86AEA40E00E94A11985E595E865E59A
:1033B00040E00E94A1198AEA9AE860EA40E00E948F
:1033C000A119CE01612F40E00E94A119CE0160E059
:1033D0000E948519182F0E94281CCE0160E00E94CF
:1033E0008519181799F7812FDF91CF911F910895B3
:1033F0001F93CF93DF93EC01162F8AEA9AE86AEACB
:1034000040E00E94A11985E595E865E540E00E944D
:10341000A1198AEA9AE860EA40E00E94A119CE0167
:10342000612F40E00E94A119CE0160E00E94851941
:10343000182F0E94281CCE0160E00E9485191817E1
:1034400099F7DF91CF911F9108951F93CF93DF9349
:10345000EC01162F85E595E56AEA40E00E94A11986
:103460008AEA9AE265E540E00E94A11985E595E5C2
:1034700060EA40E00E94A119CE01612F40E00E9465
:10348000A119CE0160E00E948519182F0E94281C06
:10349000CE0160E00E948519181799F7DF91CF914E
:1034A0001F910895CF93DF93E9018330F1F08430C9
:1034B00028F4813011F1823080F408C0853009F1A0
:1034C0008530B8F0863061F08AEA23C08FEF84B986
:1034D00045B95F9A5F9814B81BC0CA0140E002C0AA
:1034E000CA0141E00E94A11913C0CA010E94251A15
:1034F0000FC0CA010E94F8190BC08883CA0160E09E
:1035000004C081E08883CA0161E00E948519898333
:1035100080E0DF91CF910895CF92DF92EF92FF92FA
:103520000F931F93CF93DF93EC01F22E8FEF84B9AB
:1035300065B9479A479814B84498442309F44198C8
:10354000F2B810E080E2C82ED12CEE2029F4000061
:1035500000000000000005C00E94281C00000000C0
:10356000000083B1FE01E10FF11D8083F394F601A9
:10357000F2821F5F011748F7449A419A812FDF9129
:10358000CF911F910F91FF90EF90DF90CF90089512
:103590008230A9F0833071F1813011F083E8089511
:1035A000CA01A0E0B0E0DC01992788278093B80326
:1035B0009093B903A093BA03B093BB0319C09A01C7
:1035C00040E050E08091B8039091B903A091BA0314
:1035D000B091BB0380709070282B392B4A2B5B2B4A
:1035E0002093B8033093B9034093BA035093BB03BD
:1035F00080E0089581E090E0A0E0B0E08093B8031F
:103600009093B903A093BA03B093BB0380E00895ED
:103610006093B8037093B9038093BA039093BB038C
:103620000895EF92FF920F931F93E090B803F090EC
:10363000B9030091BA031091BB0367E06150D80150
:10364000C701B695A79597958795A8019701F5E1CC
:103650005695479537952795FA95D1F782278E2568
:10366000A8019701220F331F441F551FEE2417FD99
:10367000E394FF24002711278E25E82EFF2400E085
:1036800010E081E090E0A0E0B0E0E822F9220A2317
:103690001B23E22AF32A042B152B662379F6E092EA
:1036A000B803F092B9030093BA031093BB038E2DB5
:1036B0001F910F91FF90EF900895E0916903F091B1
:1036C0006A03778144815581DC0190E006C0FA01EC
:1036D000E80FF11D8D9180839F5F892F870F9617CB
:1036E000B0F3E0916903F0916A038781860F8783C5
:1036F00080913801861B80933801882311F080E087
:10370000089588E9838381E00895DF93CF930F9232
:10371000CDB7DEB7FC0127E031E08FEF80930701E2
:10372000109208013093CB032093CA0386818983CA
:103730008181853009F469C0863070F4823031F1BE
:10374000833020F4813009F074C017C0833039F120
:10375000843009F06EC02CC08A30E1F18B3038F42F
:10376000873009F45AC0893009F063C02AC08B3011
:10377000D1F1813109F05DC03FC044815581828122
:1037800063812F5F3F4F0E943D1654C04481558195
:10379000828163812F5F3F4F0E94140C4BC0448194
:1037A0005581828163812F5F3F4F0E94EA1442C09E
:1037B00044815581828163812F5F3F4F0E94521A5D
:1037C00039C044815581828163812F5F3F4F0E94C0
:1037D000190E30C044815581828163812F5F3F4F34
:1037E0000E94AD0027C044815581828163812F5F93
:1037F0003F4F0E9486031EC04481558182816381B0
:103800002F5F3F4F0E94C81A15C0CF01B901AE010A
:103810004F5F5F4F0E94010207C0CF01B901AE01A7
:103820004F5F5F4F0E940B169093CB038093CA03A8
:1038300003C080E88093070189810F90CF91DF91C9
:103840000895E9E6F0E0808182608083E89A089537
:103850001F93CF93DF936091CC03635067FDA5C0A6
:103860008091C903CCE0D0E0C81BD109C053DC4F24
:103870008091C8038D3209F085C0683009F093C08B
:1038800083EC8093BC038AE58093040110920F01BE
:103890008881807641F0CE010E94851B282F8F3FC2
:1038A00009F45FC065C09A811092C503898188239D
:1038B00021F41092C60322E04DC0853019F4909394
:1038C000CD0347C08630B1F58B81813019F488EF84
:1038D00090E004C0823041F48AE091E09093CB0301
:1038E0008093CA0322E122C08330F9F48A818823BD
:1038F00041F48CEA90E09093CB038093CA0324E0D8
:1039000015C0813041F480EB90E09093CB0380931D
:10391000CA032AE20BC0823041F48AED90E0909312
:10392000CB038093CA032EE101C020E080E48093A2
:103930000F011EC0883021F421E08FEC93E00CC011
:10394000893019F49093CF0304C08A3011F421E038
:1039500001C020E085EC93E09093CB038093CA03F1
:1039600007C0888187FD2E8180E880930F0106C003
:103970008F81882319F48E81821708F0822F80931B
:10398000050111C080910F0187FF0DC0CE010E947B
:103990005D1B8F3F21F48EE18093040104C08823D6
:1039A00011F0109205011092CC038091040184FF64
:1039B00046C0809105018F3F09F441C0182F89301E
:1039C00008F018E0811B809305018091BC0398E802
:1039D00089278093BC03112321F12091CA033091E0
:1039E000CB0380910F0186FF0AC0912FF901ADEB47
:1039F000B3E084918D9331969150D9F708C0912FFF
:103A0000D901EDEBF3E08D9181939150E1F7C9017C
:103A100001961150810F911D1F5F9093CB038093EE
:103A2000CA038DEB93E0612F0E94421D612F6C5FF2
:103A30006C3019F08FEF809305016093040194E1DD
:103A400089B1847131F49150D9F71092CD0310925D
:103A5000C703DF91CF911F910895A82FB92F80E060
:103A600090E041E050EA609530E009C02D91822756
:103A70009795879510F084279527305EC8F36F5F80
:103A8000A8F30895EADF8D939D930895CF93CFB760
:103A9000CF93DF93C3954C9BE9F74C9B0BC04C9B9A
:103AA00009C04C9B07C04C9B05C04C9B03C04C9B62
:103AB00001C089C06F93C091C903DD27C053DC4F9B
:103AC0002F9365E54C9B03C02F916F91E6CF0F9329
:103AD0001F934F9320E040E15F9309B1047104FB11
:103AE00027F93F9350E03BE039C0147140642F77D1
:103AF000012F5F5F1EC0406819B114712F775250BB
:103B00001FC0406409B12F770471D1F15F5F00C01D
:103B100023C0406219B12F77147191F15F5F00C02B
:103B200025C004711027515012F45D5F0000115040
:103B300027952C3F19B1C8F614710127015027951C
:103B40002C3FC8F64227499309B1047110274F73DF
:103B5000115027952C3FA8F64695469519B114713A
:103B600079F00127015027952C3F98F66B5A60F3A6
:103B7000315009B1B0F600C011E01CBB002717C0DE
:103B80003B503195C31BD04011E01CBB0881033C66
:103B9000F9F00B34E9F02091C7031981110F1213CA
:103BA000EDCF093651F10D3211F0013E39F7009396
:103BB000CE033F915F914F911F910F912F916F9184
:103BC000CCB3C0FD67CFDF91CF91CFBFCF91189518
:103BD0002091CE03222369F31091CC03112339F5F0
:103BE00034303AF13093CC032093C8031091C903C9
:103BF0003BE0311B3093C9031CC00091CC03013062
:103C0000B4F40AE53091040134FD14C000930401BA
:103C1000CCEBD3E013C0052710E000C000000BB9C7
:103C20001AC0052710E0221F1DC010E021C04AE580
:103C300002C032ED432FC4E1D0E032E01AB114618A
:103C40005C9A0BB11AB954E120E865E320FF05271F
:103C50000BB9279517951C3FF0F66695B8F7B1F7A5
:103C600020FF05270BB9279517951C3FD0F6279500
:103C7000179517FF052700001C3F0BB9B0F62991D7
:103C80003A9519F70B7E1091CD03110FC651D04014
:103C90000BB911F01093C70311E01CBB00611AB1FE
:103CA0001B7E402F4B7E54E05A95F1F70BB91AB9A1
:083CB0004BB97FCFF894FFCF60
:063CB80069019F035AFFA1
:00000001FF
