:020000040800F2
:10000000001800200508000835050008390500081B
:1000100000000000000000000000000000000000E0
:10002000000000000000000000000000350500088E
:10003000000000000000000035050008350500083C
:1000400035050008350500083505000835050008A8
:100050003505000835050008350500083505000898
:100060003505000835050008350500083505000888
:100070003505000835050008350500083505000878
:100080003505000835050008350500083505000868
:100090003505000835050008350500083505000858
:1000A0003505000835050008350500083505000848
:1000B00035050008350500083505000899010008D8
:1000C000284B10B51A88284B12041B881A43274B5B
:1000D000198849084900885A254908801988023139
:1000E00089B21980198849084900885A214908802D
:1000F0001988023189B21980198849084900885A3B
:100100001D49088019881D48023189B21980198853
:1001100049084900895A1A4A11801A881949023235
:1001200092B21A801C880288944213D902881C88D3
:100130000832121B92B20A80028892B21A801249C7
:10014000124B0A881343124A1A40302353409BB281
:100150000B8010BD0F4804881A889442E6D3082308
:100160000B80ECE70C6000400A6000400460004037
:100170004C6000404E600040506000400260004013
:10018000526000401A600040005C00408080FFFF29
:10019000BF8FFFFF006000409449F8B50B88944C76
:1001A000002B3AD00A88934B9A4234D1002302257F
:1001B000914A924F1380924A1380924A1380924A36
:1001C0001380924A1380924AD08FA843D087D08F51
:1001D000013DA843D0878F481735FB8705808E489F
:1001E000343505808D480835058080258C486D01A3
:1001F000058080258B4805808020FB878A4B000680
:1002000023808A4B18608023D08FDB000343D38781
:10021000874B884A1A8000230B8023881BB2002B4F
:1002200000DBC4E02388844A774F134080221343C5
:10023000238023881B0500D49CE0804D7F232A78EF
:1002400011009943714B1980E9886B4B198000218B
:100250006C4B19803B88FF318B4313433B806023F9
:100260001A4208D08022764B12051B8828009B1862
:100270009847634B188060232A78134052B2002AB3
:100280004DDA002B14D16A78062A0FD16A88110A38
:1002900002291AD003291BD0012920D1694B12262B
:1002A000694A99B21180694A1B0C1380544B1E8015
:1002B0002288674B1343674A1A40C0239B0153406F
:1002C0009BB22380FFF7FCFE47E05E4B1233E6E76C
:1002D000D2B2012A0FD0002A03D0022A15D01E0064
:1002E000E4E7584B584A243399B21180574A1B0C03
:1002F00013800426DAE7534B534A283399B211800E
:10030000524A1B0C1380544ED0E74E4B4E4A7C335E
:1003100099B211804D4A1B0C1380504EC6E7002B3A
:1003200009D16B78052B06D13A886B88D2B21B02B3
:1003300013439BB23B8000212388494A1340494A1A
:1003400013439BB22380484B198023881A43474BA1
:100350001A40474B5A4092B22280284BDB8F5B05F4
:1003600007D580222F4B1A800023244AD3872E4B97
:100370002380F8BD60213B880B40402BEDD13B88AA
:100380001342EAD1264A3B4B2C481B881188802215
:1003900012059B18C9B298472288324B13432D4A45
:1003A0001A40C0239B0153409BB22380D5E7802293
:1003B00023881342D1D023882F490B408021090282
:1003C0000B432380114B1B88934200D17AE7FF2017
:1003D0000D4B19888143C0D01988090A0A43114975
:1003E0000A801A8802401A80B7E7C0460E600040B3
:1003F000005C00403CA5000000600040065C00403E
:100400000260004004600040066000400860004058
:10041000025C0040505C0040186000401C600040DE
:100420001E6000404C5C00402032000000E100E013
:10043000585C00400080FFFF8F0F000054600040B8
:10044000106000407C0400080A6000400C6000401E
:100450008081FFFF8FBFFFFF2A0300001E03000003
:100460008F8EFFFF8080FFFF1A600040BFBFFFFF3D
:1004700030300000126000400F8FFFFF12010002B9
:10048000FF000008C016DC0503020102000109029A
:100490001200010100803209040000000000000089
:1004A000040309042A0349006E00660069006E0017
:1004B0006900740065004E00650073004C0069001F
:1004C0007600650073002E0063006F006D00000071
:1004D000000000000000000000000000000000001C
:1004E000000000000000000000000000000000000C
:1004F00000000000000000001E0349004E004C00F8
:10050000200052006500740072006F002D00500042
:1005100072006F0067000000000000000000000093
:1005200000000000000000000000000000000000CB
:1005300000000000FEE7FFFF004801E02301ADDE00
:10054000FEE7C04602B4714649084900095C49000B
:100550008E4402BC7047C046411D000000616561C9
:1005600062690001130000000536532D4D00060C92
:10057000074D09011901FFFF03B471464908400006
:100580004900095A49008E4403BC7047411D0000D0
:100590000061656162690001130000000536532D9A
:1005A0004D00060C074D09011901FFFF70470A4B6A
:1005B0000A4A10B55A600A4A5A600122DC6814429D
:1005C000FCD11A6101220180D9681142FCD120229C
:1005D000DA6060321A6110BD0020024023016745D5
:1005E000AB89EFCDFF2370B53C4C23804378C588A1
:1005F000102B00D06FE0C37881888078384E0138A6
:100600007269082800D964E0FFF79CFF0563632B3B
:100610003B3149515F008B1E8E227D2B19D8314B07
:100620007360314B73600123F2681A42FCD10223DC
:100630003361802389021B05C9184223716133612C
:10064000C046413BF2681A40FCD12023F36060337E
:1006500033612270254BA2B2240CE8B25A819C81EE
:1006600070BD58001018FFF7A2FF0022F1E78E229C
:10067000012BEED8180480231B05C01840181C4914
:10068000F1E7042363707369A37073691B0AE37055
:1006900073691B0C237173691B0E6371E5E70223F9
:1006A00063701388A37013881B0AE370DDE78E2242
:1006B000012BCED880221B0412059B185918022347
:1006C00063700B88A3700B88EEE70A4B0A4ADA6066
:1006D000CBE78B22BDE780232370BBE7F806002021
:1006E0000020024023016745AB89EFCD0060004048
:1006F000FFFF000000ED00E00400FA05FFFFFFFF30
:10070000FFFFFFFFFFFFFFFFFFFFFFFFFFFFFFFFF9
:10071000FFFFFFFFFFFFFFFFFFFFFFFFFFFFFFFFE9
:10072000FFFFFFFFFFFFFFFFFFFFFFFFFFFFFFFFD9
:10073000FFFFFFFFFFFFFFFFFFFFFFFFFFFFFFFFC9
:10074000FFFFFFFFFFFFFFFFFFFFFFFFFFFFFFFFB9
:10075000FFFFFFFFFFFFFFFFFFFFFFFFFFFFFFFFA9
:10076000FFFFFFFFFFFFFFFFFFFFFFFFFFFFFFFF99
:10077000164B174A9BB21382164B9BB253826846A4
:100780001C300F4A0F4B0430043001681140C91A65
:10079000FAD1094A094B043801681140C91AF2D14B
:1007A0007B460A3303600438013303600CE00A4BD4
:1007B0000A4A1A60FBE7C0460000FFFF000000087D
:1007C000FFFFFF0F0000000100207047E505000853
:1007D00000600040AD05000800300040AAAA0000FB
:1007E000FFFFFFFFFFFFFFFFFFFFFFFFFFFFFFFF19
:1007F000FFFFFFFFFFFFFFFFFFFFFFFFFFFFFFFF09
:10080000FFFFFFFF09490A4A0A4B9B1A03DD043B1D
:10081000C858D050FBDC0849084A0020521A02DDB3
:10082000043A8850FCDC03F01BFE000088640008DA
:100830000000002030040020300400203C0700208D
:1008400070B50E4B1A68537A55685C18E4B2A3422F
:100850000ED1537A0A48CB1853720378591AC9B289
:1008600001700020814202D198230130D37070BD05
:1008700006780130EE540133DBB2E8E7940400203F
:1008800098040020FF23F0B5C34C85B02380837902
:100890000200009340780138102801D902F034F8A2
:1008A00005F062FD44000000240D0000DC12000091
:1008B000EA160000AC1D0000642000003C2000008F
:1008C000E21A0000F21B0000AE1C00006E1D0000CA
:1008D0006817000034180000F01800007C1A0000AF
:1008E00064200000741D000090789388232825D888
:1008F000FFF742FE28003000330139022403B5031C
:100900004D041605280534053C0544054D05BC0578
:10091000CA05D205DA05E205520652065206F2056C
:1009200007061E06F7020203E70535063E064906DE
:1009300056052400730581059005A8058C232370B6
:1009400000F044FFB023954A5B0351690B435361A8
:100950000023F4E7162B01D900F021FE1800FFF761
:100960000BFE170024002F001E063A004500500021
:100970001E065D006A00740081001E061E068E00C1
:100980009B00A800B500C200CF00D900E300F00032
:100990009023DB051A6882490A401A608022D968D0
:1009A00052030A43DA600023C9E790230122DB05E2
:1009B000196891431960D9680A43DA600023BEE7D9
:1009C00090230422DB05196891431960D9680A4312
:1009D000DA600023B3E790231022DB051968914306
:1009E0001960D9680A43DA600023A8E790234022FF
:1009F000DB05196891431960D9680A43DA6000235E
:100A00009DE79023DB051A6866490A401A60802238
:100A1000D968D2040A43DA60002390E79023DB050B
:100A20001A6861490A401A608022D96852010A4353
:100A3000DA60002383E704225C4B19689143196054
:100A4000D9680A43DA60002379E79023DB051A6846
:100A500057490A401A608022D968D2050A43DA60F1
:100A600000236CE79023DB051A6852490A401A609C
:100A70008022D968D2020A43DA6000235FE790231C
:100A8000DB051A684C490A401A608022D968520076
:100A90000A43DA60002352E79023DB051A684749CE
:100AA0000A401A608022D968D2000A43DA60002323
:100AB00045E79023DB051A6841490A401A60802205
:100AC000D968D2010A43DA60002338E79023DB05B6
:100AD0001A6834490A401A608022D968D2040A434D
:100AE000DA6000232BE79023DB051A6835490A40BA
:100AF0001A608022D96852050A43DA6000231EE793
:100B000001222A4B196891431960D9680A43DA60B7
:100B1000002314E710222C4B196891431960D968FF
:100B20000A43DA6000230AE79023DB051A682349A9
:100B30000A401A608022D968D2000A43DA60002392
:100B4000FDE61A4B18491A680A401A608022D968D3
:100B500052010A43DA600023F1E6162B01D900F0B6
:100B600021FD1800FFF708FD32003D0048001E057A
:100B700053005E0069001E0574007F008900940028
:100B80001E051E059F00AA00B500C000CB00D600C0
:100B9000E000EA00F500C046000700200010024017
:100BA000FFFFEFFFFFFFFFFBFFEFFFFF0004004829
:100BB000FFFFFFBFFFFFFBFFFFFEFFFFFFFBFFFF8E
:100BC000FFBFFFFFFFFFFFEF000C00489023DB0596
:100BD0001968CF4801401960DA680240DA600023E2
:100BE000ADE690230121DB051A688A431A60DA68B2
:100BF0008A43DA600023A2E690230421DB051A6809
:100C00008A431A60DA688A43DA60002397E6902301
:100C10001021DB051A688A431A60DA688A43DA60B1
:100C200000238CE690234021DB051A688A431A6072
:100C3000DA688A43DA60002381E69023DB051968CD
:100C4000B44801401960DA680240DA60002376E6B1
:100C50009023DB051968B04801401960DA6802404A
:100C6000DA6000236BE60421AC4B1A688A431A60F1
:100C7000DA688A43DA60002361E69023DB051968AD
:100C8000A74801401960DA680240DA60002356E69E
:100C90009023DB051968A34801401960DA68024017
:100CA000DA6000234BE69023DB0519689E4801407B
:100CB0001960DA680240DA60002340E69023DB0521
:100CC00019689A4801401960DA680240DA60002326
:100CD00035E69023DB051968954801401960DA680C
:100CE0000240DA6000232AE69023DB051968894870
:100CF00001401960DA680240DA6000231FE69023A1
:100D0000DB0519688B4801401960DA680240DA6037
:100D1000002314E60121814B1A688A431A60DA68BD
:100D20008A43DA6000230AE61021834B1A688A435B
:100D30001A60DA688A43DA60002300E69023DB0554
:100D400019687A4801401960DA680240DA600023C5
:100D5000F5E5724B7048196801401960DA68024085
:100D6000DA600023EBE5162B01D900F01EFC180019
:100D7000FFF702FC1700200028001B043000380099
:100D800040001B0449005200590062001B041B0470
:100D90006B0074007D0086008F0098009F00A60005
:100DA000AF0090228023D20511685B030B431360D0
:100DB0000023C4E590220123D20511680B43136080
:100DC0000023BCE590220423D20511680B43136075
:100DD0000023B4E590221023D20511680B43136061
:100DE0000023ACE590224023D20511680B43136029
:100DF0000023A4E590228023D2051168DB040B4375
:100E0000136000239BE590228023D20511685B01CB
:100E10000B431360002392E50423404A11680B43FF
:100E2000136000238BE590228023D2051168DB0537
:100E30000B431360002382E590228023D2051168C2
:100E4000DB020B431360002379E590228023D20557
:100E500011685B000B431360002370E59022802330
:100E6000D2051168DB000B431360002367E5902275
:100E70008023D2051168DB010B43136000235EE57C
:100E800090228023D2051168DB040B4313600023FA
:100E900055E590228023D20511685B050B43136052
:100EA00000234CE501231D4A11680B431360002306
:100EB00045E51023204A11680B43136000233EE5EB
:100EC00090228023D2051168DB000B4313600023BE
:100ED00035E58023114A5B0111680B431360002341
:100EE0002DE5082B00D063E39022D20551683833FA
:100EF0000B435360002322E5082B00D05BE39022D4
:100F00004021D20553688B435360002317E5C04648
:100F1000FFFFEFFFFFFFFFFBFFEFFFFF00040048B5
:100F2000FFFFFFBFFFFFFBFFFFFEFFFFFFFBFFFF1A
:100F3000FFBFFFFFFFFFFFEF000C0048162B00D99B
:100F40003CE31800FFF718FB17001E0024003A03CB
:100F50002A00300036003A033D00430048004F00AD
:100F60003A033A0356005C00620068006F007600A6
:100F70007B008000860090238022DB05D2009A62ED
:100F80000023DCE490230122DB059A620023D6E4EF
:100F900090230222DB059A620023D0E490230422EE
:100FA000DB059A620023CAE490230822DB059A62DB
:100FB0000023C4E490238022DB0592019A6200237F
:100FC000BDE490234022DB059A620023B7E40222AD
:100FD000D14B9A620023B2E490238022DB051202F7
:100FE0009A620023ABE490238022DB0592009A6290
:100FF0000023A4E490231022DB059A6200239EE4E0
:1010000090232022DB059A62002398E4902380221B
:10101000DB059A62002392E490238022DB05920193
:101020009A6200238BE490238022DB05D2019A622E
:10103000002384E40122B84B9A6200237FE4042257
:10104000B64B9A6200237AE490232022DB059A6251
:10105000002374E44022B04B9A6200236FE4162B05
:1010600000D9AEE21800FFF787FA17001E0024002F
:10107000AC022A0030003600AC023D0043004800BC
:101080004F00AC02AC0256005C00620069007100C7
:1010900079007F0085008C0090238022DB05D20040
:1010A0009A6100234BE490230122DB059A6100231F
:1010B00045E490230222DB059A6100233FE490235C
:1010C0000422DB059A61002339E490230822DB0522
:1010D0009A61002333E490238022DB0592019A6118
:1010E00000232CE490234022DB059A61002326E4B0
:1010F0000222894B9A61002321E490238022DB05A0
:1011000012029A6100231AE490238022DB059200E8
:101110009A61002313E490231022DB059A610023D7
:101120000DE490232022DB059A61002307E490233D
:101130008022DB059A610023FFF701FC90238022C7
:10114000DB0592019A610023FFF7F9FB90238022CF
:10115000DB05D2019A610023FFF7F1FB01226E4B00
:101160009A610023FFF7EBFB04226C4B9A6100238A
:10117000FFF7E5FB90232022DB059A610023FFF7B0
:10118000DEFB4022644B9A610023FFF7D8FB02226A
:101190006270162B00D9BAE01800FFF7D3F90C16CD
:1011A0001FB828313AB8444D555EB8B868717A8393
:1011B0008D979FA7B00090238022DB051B69D2008A
:1011C000134063800023FFF7BAFB90230122DB0565
:1011D0001B69134063800023FFF7B1FB90230222B9
:1011E000DB051B69134063800023FFF7A8FB9023F6
:1011F0000422DB051B69134063800023FFF79FFB7C
:1012000090230822DB051B69134063800023FFF74E
:1012100096FB90238022DB051B69920113406380BB
:101220000023FFF78CFB90234022DB051B69134052
:1012300063800023FFF783FB0222374B1B691340B7
:1012400063800023FFF77BFB9023DB051B69DB0B2F
:10125000DB0363800023FFF772FB90238022DB0512
:101260001B699200134063800023FFF768FB902303
:101270001022DB051B69134063800023FFF75FFB2F
:1012800090232022DB051B69134063800023FFF7B6
:1012900056FB90238022DB051B69134063800023EB
:1012A000FFF74DFB90238022DB051B699201134061
:1012B00063800023FFF743FB90238022DB051B693B
:1012C000D201134063800023FFF739FB0122124B48
:1012D0001B69134063800023FFF731FB04220F4B8F
:1012E0001B69134063800023FFF729FB9023202212
:1012F000DB051B69134063800023FFF720FB4022BE
:10130000054B1B69134063800023FFF718FB002384
:1013100063708D33FFF713FB00040048000C004896
:101320008023EC4ADB0251690B435361EA4BEB49E2
:101330001A680A401A60D968E94A0A43DA60002349
:10134000FFF7FDFAE44BE5491A680A401A60D968CC
:10135000E34A0A43DA600023FFF7F1FADE4ADF4985
:1013600013680B4013600023FFF7E9FADA4ADC4BFD
:1013700011680B4313600023FFF7E1FAD6491B0203
:101380004A69D2B213434B610023FFF7D8FAD24B1C
:101390001B691B0AA370012363700023FFF7CFFAB8
:1013A000C023CC4ADB025169CE480B430F21536165
:1013B000C94A13680B4013609023DB05196801408C
:1013C0001960D068C8490143D160A022D96852038E
:1013D0000A43DA600023FFF7B2FA0F21BE4A13680E
:1013E0000B4013609022D2051368BE490B40136076
:1013F0000023FFF7A4FAB84ABB4B11680B431360F4
:101400009022A023D20511685B030B4313600023D5
:10141000FFF795FAB04918024A691B0AD2B2024393
:101420004A614A69B1480240980002434A619021EA
:10143000C9054A69AE48DB00024013434B610023F3
:10144000FFF77DFAA44A3F2113691B0AA3701369B1
:101450009022D20512699B08D2080B408A4313439D
:10146000E370022363700023FFF769FA8023994A2F
:101470001B0351690B4353619E4A9F4B11680B43F9
:1014800013600023FFF75BFA9A4A9B4BD1680B432A
:10149000D3600023FFF753FA964A984913680B402C
:1014A00013600023FFF74BFA924A934B11680B43EA
:1014B00013600023FFF743FA8E4A53610023FFF7BE
:1014C0003EFA012363708B4B1A69A2701B691B0AD9
:1014D000E3700023FFF733FAC0237E4ADB02516931
:1014E0000B4353617C4A864B11680B431360902277
:1014F000A023D20511685B030B4313600023FFF7A1
:101500001EFA754A7E4BD1680B43D3609023A0210D
:10151000DB05D86849030143D96011687948014067
:1015200011601A6878490A401A600023FFF707FA29
:10153000FF2569489A0041692A406C4DDB0029402B
:101540000A4342619021C020C905C0004A69034096
:101550006748024013434B610023FFF7F0F9012174
:101560005D4B1A680A431A6099620023FFF7E7F996
:101570000122594B196891431960D9680A43DA600E
:101580000023FFF7DCF95B4A53610122524B9A6159
:101590009A620023FFF7D3F90023FFF7D0F98D23D8
:1015A000FFF7CDF98D23FFF7CAF98D23FFF7C7F9B0
:1015B0008D23FFF7C4F98D23FFF7C1F98D23FFF7C2
:1015C000BEF98D23FFF7BBF995789388052D00D1DF
:1015D000AFE119D8022D00D143E107D8002D00D189
:1015E000EEE0012D00D1F9E09625EDE0032D00D1CC
:1015F00022E2042DF8D1DBB2012B00D183E2022BD1
:1016000000D1A1E29825DFE0082D00D1F2E100D958
:101610007CE0062D00D1AFE1072DE5D102F084FB7F
:1016200090230121DB051A680A431A601022996190
:101630001868024304201A60802298611C68D20155
:1016400022431A6080229A6180221C685201224340
:101650001A6040229A611C68204318600220986139
:10166000186802431A6008229A61802219481203FE
:10167000446922431F4C426125681F4A2A43226065
:10168000154A15680D431560842591626561002532
:1016900091619162802165611C68C90521431960CF
:1016A000802109029962C0214469C9022143416134
:1016B0000F2011680140116019680A480140196043
:1016C000D06809490143D160A022D96852030A4376
:1016D000DA6079E00010024000040048FFFFAAAA87
:1016E00000005555FFFFC3FF5055555503FF00003F
:1016F000FFF900000008004855555555AAAAAAAAA6
:1017000050550000AFAAFFFFFFFFEBFF0A2D00D1ED
:10171000FAE000D203E1802D00D065E79023012597
:1017200040208026DB05657098621A687601324396
:101730001A60C046D3491C691A6804400A401A60FE
:10174000DA680A40DA60F022002C36D11A680A40C2
:101750001A60DA681643DE601A6994461A690192C3
:10176000C0461A690292C046C0461A690392C04632
:10177000C046C0461F69C046C046C046C0461E6936
:101780001A680A401A60DA681140D960634622007C
:10179000034212D1019B2A0003420ED10299023268
:1017A00001420AD103990332014206D104320742B1
:1017B00003D1D632064200D0D13AB34B9A70ACE096
:1017C000B24A137002F0B0FAAF4C2570B04B0098DB
:1017D000A2B2240C5A819C8105B0F0BD02F0A4FA9B
:1017E0009023DB059D611A6815438022D2001D609D
:1017F0009A628022196852030A431A600222042165
:101800009A611A680A431A601022996119680A439A
:101810001A6008229A61196838320A431A608023D4
:101820009C4ADB0251699C4D0B4353619B4B1968E9
:1018300029401960DC689A490C43DC60186828402C
:101840001860D8680143D960802351691B030B439A
:101850005361944B944A19680A431A6000255D61EC
:10186000B2E702F061FA90230121DB051A688A4E83
:101870000A431A601022996119680A431A60042207
:1018800040219A611A680A431A6008229A618022EC
:101890009961196852010A431A6080227D49D20277
:1018A000486902434A617D4A106830401060D5683B
:1018B0007B480543D560146834401460D4682043E5
:1018C000D06080204C690003204348617548764C05
:1018D00005682C43002504604561C0204C69C002A6
:1018E000204348611068714901431160A0211868C4
:1018F0004903014319606E485169014051615A69B9
:101900006C490A405A615FE790238022DB05196821
:10191000D2010A431A6080229A61002554E790237D
:101920008022DB051968D2010A431A6080229A627C
:10193000F3E702F0F9F990230121DB051A680A4365
:101940001A601022996119680A431A600422402122
:101950009A611A680A431A6008229A6180221868FC
:10196000520102431A609961196853480140196095
:10197000DA680240DA6052E702F0D6F990230121DA
:10198000DB051A68444D0A431A60102299611968F0
:101990000A431A6004229A6119683C3211431960A3
:1019A000082199619A629A6180233A4ADB0251695F
:1019B0000B435361394B196829401960DC68384979
:1019C0000C43DC60186828401860D8680143D9606F
:1019D000802351691B030B435361324B324A196810
:1019E000364811431960196801401960D9680A43E3
:1019F000DA6033E702F098F990230121DB051A68D9
:101A00000A431A6004229961196811431960196820
:101A100011431960102118680143196040219A612F
:101A20001A680A431A6080229D61186852010243B5
:101A30001A609961174ACBE7DBB2022B44D000252C
:101A4000032B00D1C0E69735012B00D0BCE68022E5
:101A5000002510491203486902434A61114A11687E
:101A600099431160D1681943D1605168194351609D
:101A7000936111680B431360114B1D70114B1A6079
:101A8000A2E6C046FFEFFFFF000700200C07002082
:101A90000060004000100240FFFFAAAA00040048B6
:101AA0000000555500080048555555555055000043
:101AB00003FF0000FFF90000FFFBFFFFAAAAAAAA8C
:101AC0001407002010070020B023C24A5B035169AD
:101AD00040200B4353619023DB051A68BE490A403E
:101AE0001A608022D96852011143D96059680143B4
:101AF0005960986119680A4306211A60B74A117043
:101B0000B74A136009E79022B64BD2051A60062245
:101B10000221B54B1A70B54BB54A1360B54A117026
:101B2000B54A01311360B54A1170B54A1360B54B1F
:101B3000A84A1D70B02351695B030B43536102F047
:101B400027F802F025F8E8E69022A649D2050A60B7
:101B5000A5490B700321A64B1A60A64B1970A64B22
:101B600049181A60A54B1970A54B1A600122A54BA4
:101B70001A70B023974A5B0351690B435361E0E746
:101B80009678D7789588162E00D1B6E159D80B2EC5
:101B900000D165E12AD8052E00D143E10ED8012EEF
:101BA00000D1E7E0002E00D1D8E0022E00D1E6E01F
:101BB000042E00D13BE1A023FEF7C1FE082E00D188
:101BC0009BE109D8062E00D1CFE0072EF3D13900D2
:101BD000280001F0DBFDC5E0092E00D131E10A2E1D
:101BE000E9D13900280001F037FBBBE0102E00D10D
:101BF0003BE10ED80D2E00D12DE100D260E10E2E7A
:101C000000D123E10F2ED6D13900280002F008FBC5
:101C1000A8E0132E00D158E109D8112E00D14AE1D5
:101C2000122EC8D13900280001F04CFD9AE0142E84
:101C300000D13BE1152EBED13900280001F0E4FDB2
:101C400090E0242E00D1FAE04AD81B2E00D141E1C9
:101C50000CD8182E00D150E1EED3192EECD01A2E4C
:101C6000A9D13900280001F0BFFC7BE0212E00D172
:101C7000E2E007D81C2E00D13AE1634B202E9AD126
:101C80001D706FE0222E00D17EE0232E93D15F4B9A
:101C90009D4202D880231B021D4390276B1CFF33FB
:101CA0009BB20193FF055A4B504E5D613268594B10
:101CB0001343336000F0E4FEFF2273690002134017
:101CC00018437061C04608230135BB62BB61019BAC
:101CD000ADB2AB42E7D133684F4A1340336041E0C5
:101CE000822E00D13AE111D80023262E01D1FEF731
:101CF00026FE69D3802E00D104E1812E00D05AE760
:101D000001236370280001F02DFC2CE1862E00D108
:101D100031E10AD8842E00D127E1852E00D04AE790
:101D200001236370384B1B7816E1872E00D12AE11E
:101D3000882E00D03FE7012602216670374801F067
:101D400019FB3100364801F015FB0221334801F040
:101D500011FB3900280001F00DFBD3E73900280002
:101D600001F09CFD0023FEF7EAFD3900280001F098
:101D700071FDF7E73900280001F02AFAF2E739008F
:101D8000280001F0F7FAEDE7214B90225D61022374
:101D9000D2059362154B1F4918683F020143196031
:101DA00059692DB2C9B20F435F61002D01DA0121DB
:101DB0009162C046C04601219161491891611A683B
:101DC00015490A401A60CDE73900280001F0A2FA4F
:101DD000C8E7C04600100240FFEFFFFF14070020D5
:101DE00010070020280700202C07002000040048CE
:101DF000200700202407002030070020340700209F
:101E0000180700201C0700208C040020FF1F000082
:101E10000008004800005555FFFFAAAA0251000023
:101E2000035100003900280001F08EF99AE73900CB
:101E3000280002F0E3F995E7C64B1D8092E7C64BF8
:101E40001EE73900280001F087FD8BE739002800E4
:101E500002F016FA86E73900280001F04BFD81E711
:101E60003900280001F040FB7CE7AA21BB4801F0C3
:101E700081FA5521BA4801F07DFAA021B74801F056
:101E800079FA3900280001F075FAA020B54B00025C
:101E9000197801F06FFA280001F064FB0600C046D3
:101EA000280001F05FFB8642F5D15BE7390028008E
:101EB00001F042FC56E73900280001F0DBFA51E757
:101EC0003900280001F090FA4CE73900280001F0B1
:101ED000D3FB47E76E1CFF36B6B200F0D1FD010020
:101EE00028000135ADB201F045FAB542F5D139E728
:101EF0003900280001F072FC34E73900280001F0B5
:101F0000E3F92FE7012190236170DB051868964EF5
:101F100030401860DA6802203240DA608022D20055
:101F20009A629961986191484561C046C0462DB258
:101F30009A61002D00DA9962C046C046C046C0468C
:101F4000C046C04690228021894BD205C9001B693A
:101F5000916201211B0A9161A37003E7012328000C
:101F6000637001F05DF9A070FCE601232800637046
:101F700001F012F9F7E702236370764B1B88A37018
:101F80001B0AE370EEE601236370734BCBE6907897
:101F9000D1789588AA23062801D9FEF7D0FCFEF750
:101FA000D1FA042A1B2226322000FF207049AB0000
:101FB0004A6903406F48ED00024013434B61902291
:101FC000C021D205C90053690D406B490B401D4328
:101FD00055610023FEF7B3FC0022280000F068FDE5
:101FE000F7E70122F9E7280000F01AFFF1E72800DF
:101FF00000F0EEFEEDE7012300216370280000F001
:1020000087FDA070E5E701216170F7E79678D77842
:102010009588042E24D009D8012E11D0002E52D03C
:10202000022E13D0032E16D0AF2652E0062E37D044
:102030001BD3072E39D0202EF6D14A4B1D7003E05A
:102040003900280001F092FF002642E03900280004
:1020500002F016F8F8E73900280001F045FFF3E731
:102060003900280001F0D6FFEEE73E4B1B78002B2D
:1020700001D1AD04AD0CA021280001F035FF3900DD
:10208000280001F031FF280001F0A0FF4027384070
:102090000600280001F09AFF3840B042F8D1D3E79B
:1020A0003900280002F00EF8CEE76E1CFF36B6B2FB
:1020B00000F0E6FC010028000135ADB201F056FF4A
:1020C000B542F5D1C0E701232800637001F07EFF1F
:1020D000A0702670FFF77AFB9578022D0CD0032DA7
:1020E0002BD0002D33D10223637001F0D7FEA070F6
:1020F000000AE070FFF769FB9588204BD0781D80BF
:102100001F4B204A1870194B000219680A431849DE
:102110001A600E681C4A32430A605D614A69D2B295
:1021200002434A6190220121D20591621A6817493F
:102130000A401A600025FFF748FB90230122DB05C7
:102140009A610B4A124913680B401360F2E7B025FD
:10215000FFF73BFB36040020A3040020AAFA00008E
:1021600055F500008C040020FFEFFFFF0008004839
:102170000004004803FF0000FFF900008A0400206B
:10218000880400205555555500005555AAAAAAAAFD
:10219000FFFFAAAA9078D67895880B2800D9BCE0D2
:1021A000FEF7D0F9067F0DBBBB131C252A5589B756
:1021B000C74B1D80C74B5D610023FEF7C0FBC64BBC
:1021C000E8B21D8000F0ECFEF6E7C14B290018884C
:1021D000801980B2188000F095FEEDE7BC4B290015
:1021E0001888801980B2188000F034FFE4E72900D5
:1021F000012000F057FFDFE70121B54B08001D80EB
:1022000000F050FF102000F0CBFEB24BB34A5D61EE
:10221000B34B3602196801200A431A605A69042137
:10222000D2B216439022D2055E6191610239916269
:102230009062C046C046C046C046C046C046916196
:1022400090611A68A7490A401A600021D1E7012667
:102250009F4B3100667030001D8000F023FF10207E
:1022600000F09EFE9B4B9E4A5D6113689D490220D3
:102270000B40136090230421DB05996298619E62F4
:10228000C046C046C046C046C046C04615699861B3
:102290002D0A996130009E61002100F003FFA570B6
:1022A0008AE78B4B1D800223637000F095FEA070BF
:1022B000000AE07080E7B1B228009AE7884E874BA9
:1022C000326813433360019A824B5A6100F0D8FBA5
:1022D000FF22736900021340184304237061FD3A22
:1022E000BB61033BBA62BB62C046C046C046C04643
:1022F000C046C046BA61BB6133687A4A1340336056
:10230000019B01339BB20193019B5B1B1B04D5D541
:1023100052E790270195FF05F6E7B123FEF70FFB83
:102320009078938804282BD8FEF70CF9182A030814
:102330000C006D4A13800023FEF701FB180001F02A
:102340002DFBF8E790230222DB059A61C046C046C8
:10235000C046C046C046013A9A61ECE7902202238B
:102360000421D20563709162C046C046C046C04693
:10237000584B1B699161A3709BB21B0AE370DAE7AB
:10238000B223FEF7DCFA9578D0789188112D7BD0B6
:1023900007D8012D4DD0002D0DD0022D5AD0822608
:1023A00097E6212D64D0222D69D0122DF7D102237A
:1023B000102063706BE001274C4B04261B78102023
:1023C0009F40FA434A4B01921D68AF626B6813400D
:1023D0006B6000F04AFBAF616B683B436B60FA20B7
:1023E000400000F042FBFA20AF626B68019A4000A7
:1023F00013406B6000F039FBAF616B68013E3B43FB
:10240000B6B26B60002EEAD10436FA2000F02DFB44
:10241000AF626B68019AFA2013406B6000F025FBF5
:10242000AF616B68013E3B43B6B26B60002EECD1EE
:102430004FE62E4A2E4B12781E689540B56273689F
:102440001020AB43736000F010FBB56173682B4341
:102450007360F9E50123254A63701278254993409A
:10246000234A9BB21268002002F0B2FEA070EBE596
:10247000012302000020637001F042FFF6E7012310
:10248000020063701020F7E702230020637001F060
:1024900091FF6080D8E59078D1780138938808283A
:1024A00054D8FEF74FF8050D2D0B3653393F490030
:1024B000114B1B78A3700123637006E00F4BF8E704
:1024C0000D4A137083220D4B1A700023FEF737FA62
:1024D00008070020000800480A07002000005555A2
:1024E00000040048FFFFAAAAA0040020140700204F
:1024F0001007002004000200C4040020E6040020AD
:10250000B84AB94D137083232B7001F0B1FB2B78BF
:10251000D0E7B64A1370D8E7B54A535452181B0A8D
:102520005370D2E70023B24A5218D05CE11801334D
:102530008870082BF9D1BFE70223AD499A1E8A5C47
:10254000E2540133222BF9D1023BB5E78723FEF792
:10255000F6F99078D578023891888A230A2801D92B
:10256000FEF7EDF9FDF7EEFF060B11161D24303CCA
:10257000414950009F4B19800023FEF7E0F99D4B25
:102580001B881B040B439847F6E7FEF7F1F803009E
:10259000FEF7D5F9984803689AB20B041343036019
:1025A000EAE7954A13681B0C1B040B431360E3E72F
:1025B00004236370904B1B681A0AA370E2701A0C14
:1025C0001B0E22716371D7E702238B4A6370126876
:1025D0004B00D3181A88A2701B881B0AE370CBE744
:1025E000854B6D001B68E952C6E7834A4B001168B2
:1025F000CB18136002226270ECE77F4B6D001A6803
:1026000055191D602980B7E7012363700233A37059
:10261000B2E78823FEF793F993789188022B09D0CB
:10262000032B0ED0012B10D1744A09041160002332
:10263000FEF785F9714A13681B0C1B040B431360EA
:10264000F5E701226D4B1A60F1E78323FEF777F976
:1026500091780B00303B2F2B1AD8D078032814D850
:10266000FDF770FF16180211654B512900D17DE06E
:1026700028D8312957D00FD8002937D030294BD04E
:10268000B423FEF75CF95F4BEFE7B523FEF757F98C
:102690005D4BEAE75D4BE8E7332952D04AD3502936
:1026A000EED1C022D20022801A7AA270DA78E270CB
:1026B0005A7A22719A7A62719A78A2715B7CE3717C
:1026C000FFF784F87F2900D984E070295DD2602962
:1026D0003CD0612943D05229D2D180221B8892005C
:1026E000A3701B0A2280E370FFF770F8FF22484BAB
:1026F000CA5401311029FBD10123434A5B42538064
:10270000424A53803E4A53803E4A53800122414B05
:102710001A700023FEF713F99288110AD9721A73FE
:102720000023FEF70CF99288110A59739A7300235B
:10273000FEF705F99288110AD9731A740023FEF77F
:10274000FEF892885A740023FEF7F9F880235B00A4
:10275000238093882E4AD35CA370FFF737F8802339
:102760005B0023802C4B1B68DB78F5E7C022D2008E
:102770002280DA7AA2701A7BE2705A7B22719A7BED
:102780006271DA7BA2711B7C99E71F4B15785C683C
:10279000214B1B68D8787F2D00D9B8E01F4D009ED3
:1027A0002E7000280FD000250095982800D1B4E0A5
:1027B00004E000250095D02800D1AEE01548103582
:1027C0000570FF2004E0164803609020D8706F3039
:1027D0000090A2E00720084003283AD8FDF7B2FE97
:1027E0003C3E2237C4040020E6040020E50400201B
:1027F000C504002034040020300400209C04002084
:102800006004002074040020380400204C040020E0
:10281000E7040020A4040020900400209804002075
:1028200094040020494B802901D2FEF7CFFF87296D
:1028300016D97031C9B2072901D9FEF7C7FF0021A7
:102840002170D178997292881A80FEF7BFFF404BB1
:10285000E9E7B523FEF773F83E4BE4E73E4BE2E7CA
:102860009088D178C6B28D19BE22102D2CDC04328E
:10287000002929D0DD78033AFF2D25D19D7801323A
:10288000FF2D21D10022D7B2B94220D8334D0022EA
:10289000AC464F01013F1F727701000A67449870F0
:1028A000DA705A729A721A80DA721A735A739A73B9
:1028B000DA731A745A745F60294B9D19A854013257
:1028C000D3B29942FAD800222270FEF77FFF01327C
:1028D000B718234D013FEF5DFF2FD4D0C122F3E79E
:1028E0009378002B04D0402B08D0D223FEF727F892
:1028F000237092881B4B1A70FEF768FF80235B00E1
:102900002380184B1B7827E78023FEF718F8D82878
:1029100000D04EE780205C68D87000205872DB78C9
:10292000902B01D0FEF752FF712901D0FEF74EFF28
:102930000D4B91881B685868017092885968120A7B
:102940004A705A7A02325A72FEF740FF6004002041
:1029500074040020380400204C040020F8040020F7
:10296000E7040020A404002094040020F0B5194DD1
:10297000040005A8067868690902C0B208436861C6
:1029800090200421C00581622900002A01D1013272
:102990008262FF2500204A692D022A401A430E4F09
:1029A0004A61C046C046C046C0463A690133120A71
:1029B00022544A69DBB22A4001301A43C0B24A614C
:1029C000B042EED990230422DB059A61033A9A6162
:1029D000F0BDC0460008004800040048F0B5194C9E
:1029E00005000E0060691F2928D8802131430902A3
:1029F000C0B20143616190210420FF26C9058862AD
:102A000061693602314011436161C046C046C0462B
:102A1000C04600200C4FC04639690132090A2954CA
:102A20006169D2B2314001301143C0B26161984254
:102A3000F1D990230422DB059A61F0BDC0B20902EE
:102A4000D7E7C04600080048000400480023020001
:102A50000002002A04D1002B01D0802318437047C4
:102A6000DB43511EDBB20A40F3E70023800080B253
:102A7000C046C04601339BB29842F9D17047FFFF70
:102A800030B50722012409490868450D43086B4009
:102A90004340C50FDBB26B40013A23404000D2B245
:102AA0001843002AF1D10860C0B230BD9C04002058
:102AB000134B10B55861134B13481C68090220438F
:102AC00018605869C0B20143596190210820C905B6
:102AD0008862002A01D101328A62C046C046C046DF
:102AE000C046C046C046C046C04690220821D20516
:102AF0009161073991611A6804490A401A6010BD52
:102B0000000800480004004800005555FFFFAAAA2D
:102B10000F4B58619023DB05002901D101229A62F5
:102B200004229A62C046C046C046C046C046C0465F
:102B3000C046C046C046C046C046C046C04605491D
:102B400008699A61000A033AC0B29A617047C046A8
:102B50000008004800040048F7B504000E004D7A54
:102B6000C046C046C046C046C046C046C046C04635
:102B7000C0460022AA215848FFF79AFF002255219B
:102B80005648FFF795FF2402002220215248FFF704
:102B90008FFF23B20193EBB20093337AAB4216D28C
:102BA0008020009B0022737290210002FFF780FFBB
:102BB0000022802011000002FFF77AFF802000220F
:102BC000F0210002FFF774FFC0460020FEBD444B19
:102BD000444A196808200A43FF211A605A690A40CA
:102BE000A02109020A435A6190220121D205906274
:102BF0009162C046C046C046C046FF2490619161C4
:102C00001A6839492C400A401A60019B009A1C43FB
:102C10007368A4B2995C20000022FFF749FFC04608
:102C2000C046C046C046C046C046C046C046C04674
:102C3000C04600212000FFF76BFF0700C046C046DA
:102C4000C046C046C046C046C046C046C04673687F
:102C5000009A9B5C834217D0C046C046C046C0461F
:102C6000C046C046C046C046C04600212000FFF70F
:102C70004FFFB8420BD1C046C046C046C046C04612
:102C8000C046C046C046C0460135ADB283E7C04627
:102C9000C046C046C046C046C046C046C046C04604
:102CA000C046C046C046C046C046C046C046C046F4
:102CB000C046C046C046C046C046C046C046C046E4
:102CC000C046C046C046C046C04600212000FFF7AF
:102CD0001FFF0700C9E7C046AA8A0000558500000B
:102CE0000004004800005555FFFFAAAAF7B50F00E1
:102CF00003024D7A00933B7AECB2AB4202D27C7273
:102D00000020FEBD0022AA211B48FFF7D1FE0022B1
:102D100055211A48FFF7CCFE009BEEB21E4300225D
:102D200025213000FFF7C4FE00221F213000FFF7ED
:102D3000BFFE2300203301937B680022195D009BB6
:102D4000181980B2FFF7B4FE019B0134A342F3D1FE
:102D5000002229213000FFF7ABFE00210098FFF789
:102D6000D7FE002104000098FFF7D2FEC04684423F
:102D7000F3D12035ADB2BEE7AA8A00005585000028
:102D800070B504000D000022AA210F48FFF790FE45
:102D9000002255210D48FFF78BFE0022A0210A4892
:102DA000FFF786FE002229002000FFF781FE0021A8
:102DB0002000FFF7ADFE0500C04600212000FFF710
:102DC000A7FEA842F3D170BDAA8A00005585000075
:102DD00070B504000D000022AA210F48FFF768FE1D
:102DE000002255210D48FFF763FE0022A0210A486A
:102DF000FFF75EFE002229002000FFF759FE0021A8
:102E00002000FFF785FE0500C04600212000FFF7E7
:102E10007FFEA842F3D170BDAA8A0000558500004C
:102E200070B504000D000022AA210F48FFF740FEF4
:102E3000002255210D48FFF73BFE0022A0210A4841
:102E4000FFF736FE002229002000FFF731FE0021A7
:102E50002000FFF75DFE0500C04600212000FFF7BF
:102E600057FEA842F3D170BD55550000AA2A0000B4
:102E7000C90152080A43FF21F0B585B002931F4BE8
:102E80000500586912B209021140C0B201439024F2
:102E900059610121E405A1620331A162FF213F26AE
:102EA00058690902D2B2084010435861B446002064
:102EB000134F019303916346396926698908F6081F
:102EC0009E431940314329543E69411C019BC9B2BC
:102ED000360A6E545969039B01321940D2B2019BE4
:102EE000114359610230029BC0B28342E3D20423F2
:102EF000A361033BA36105B0F0BDC04600080048D4
:102F000000040048204B214A70B558611068204BDE
:102F1000FF26034313609023A020DB051C684003B9
:102F20002043186050690C023040204350615569BD
:102F3000184C080A25408400254355615C69164DEC
:102F4000C0002C4004435C615069C9B230400902A2
:102F5000014351610224082004219C629862996116
:102F600003399962C046C046C046C046C046C04606
:102F70009C619861996111680730014011601A687D
:102F800006490A401A6070BD000800480004004865
:102F90005055555503FF0000FFF90000FFFFC3FF28
:102FA00084220121094B02435A61094A91619162CD
:102FB00090228021D2050902400704D59161054A7B
:102FC00012885A6170479162F9E7C04600080048CC
:102FD00000040048080700200F2270B590241A4D05
:102FE000E4052B68012613402B602368174A134021
:102FF0002360174B1878FFF7D3FF02230421A36146
:103000000633A361A162A662C046C046C046C04660
:10301000C046C046C046C046C0462A692B692069E2
:10302000C046C046C046C046C046C046A6619B08D2
:10303000A161C0083B310B4088431843C0B2120A5B
:103040000002104380B270BD00040048FFFFC3FFC0
:103050000A07002070B504000D001048AA21FFF7F0
:1030600051FF55210E48FFF74DFFA0210B48FFF7F8
:1030700049FF29002000FFF745FFC046C046C04673
:10308000C046C046C046C046C046FFF7A5FF040084
:10309000FFF7A2FFA042F8D170BDC0465555000011
:1030A000AA2A0000F8B5204D204B2A68902413432B
:1030B0002B60A023E40522685B03134323606B6944
:1030C0000A02DBB213436B616B690A0A1849802656
:1030D0000B4091000B436B616169164BD2001940A4
:1030E000114308230222042761611349A662A362E7
:1030F000A2624F61033FAF61AF624861C046C04604
:10310000C046C046C046C046A261A3610B4B1878BA
:10311000FFF746FF0F22A6612B6813402B60236840
:10312000074A13402360F8BD000400485055555528
:1031300003FF0000FFF90000000800480A07002014
:10314000FFFFC3FF002070470F4B30B5902258613E
:1031500080230124D205DB0093620C4B94621D682E
:103160000B480902284318605869C0B201435961ED
:10317000C04608219162C046916119680548014026
:103180001960946130BDC046000800480004004842
:1031900000005555FFFFAAAA0B4B10B580215861BE
:1031A000902301220424DB05C90099619A629C6284
:1031B000C046C046C046054800699C61000A996245
:1031C000C0B29A6110BDC046000800480004004823
:1031D0000E4B984202D880231B0218430C4B0D4A19
:1031E00058610D4B0902186802431A605A69D2B23D
:1031F00011435961C04690220821D2059162C04610
:1032000091611A6805490A401A607047FF1F000063
:10321000000800480000555500040048FFFFAAAA16
:103220000A4B984202D880231B021843084B042201
:1032300058619023DB059A62C046C046C046C0462E
:10324000044908699A61000AC0B27047FF1F000074
:10325000000800480004004870B504000D000D4847
:10326000AA21FFF7B5FF55210B48FFF7B1FFA021B9
:103270000848FFF7ADFF29002000FFF7A9FF200055
:10328000FFF7CEFF0500C0462000FFF7C9FFA842A8
:10329000F5D170BD55150000AA0A000070B50400F4
:1032A0000D00A021FFF794FF29002000FFF790FFF9
:1032B0002000FFF7B5FF0500C0462000FFF7B0FF74
:1032C000A842F5D170BDFFFF70B504000D000D4898
:1032D000AA21FFF77DFF55210B48FFF779FFA021B9
:1032E0000848FFF775FF29002000FFF771FF200055
:1032F000FFF796FF0500C0462000FFF791FFA842A8
:10330000F5D170BD55150000AA1A000010B5FFF7E1
:10331000DBFF10BD30B580239024DB00E405A36102
:10332000104B114A58610223A362104B09021D6819
:1033300000B22A431A605A69D2B211435961002877
:1033400001DA0121A162C046C0460121A1614918EC
:10335000A16119680648014019608023DB00A3625F
:1033600030BDC04600080048000055550004004824
:10337000FFFFAAAA9023DB0530B51C68154D090292
:103380002C401C60DA68144C2A40DA60134A506101
:1033900002229A62124A00B215682C4314605469E2
:1033A000E4B221435161002801DA012199628021B0
:1033B000C9009961C046C046C046C046C046C04626
:1033C00099620121996149189961136805490B4077
:1033D000136030BDFFEFFFFF0000555500080048A7
:1033E00000040048FFFFAAAAF7B505001C4B019195
:1033F0001E781C4B74001F8820213C19A4B22000A9
:10340000FFF7B8FFAA211848FFF7E2FEA01B80B221
:103410001021FFF7AFFF55211448FFF7D9FE2021F7
:103420002000FFF7A7FFA0210F48FFF7D1FE104BA8
:10343000187846430101BE19C9B2B0B2FFF79AFF2E
:1034400001992800FFF7C4FE2800FFF7E9FE0400F9
:10345000C0462800FFF7E4FEA042F5D1F7BDC04604
:10346000A30400203604002055150000AA0A00001D
:103470008C04002070B50400B0200E0000020A2168
:10348000FFF778FFC0200A210002FFF773FFAA218F
:103490001248FFF79DFE55211148FFF799FEA02124
:1034A0000E48FFF795FEB0200E4B00021D78290054
:1034B000FFF760FFC02029000002FFF75BFF31002B
:1034C0002000FFF785FE2000FFF7AAFE0500C0469A
:1034D0002000FFF7A5FEA842F5D170BD55150000EC
:1034E000AA0A00008C040020F8B505000E00194B54
:1034F00002211C88A71CBFB23800FFF73BFFAA219E
:103500001548FFF765FE601C80B20121FFF732FF0E
:1035100055211248FFF75CFE02213800FFF72AFF11
:10352000A0210D48FFF754FE0D4B19786418A0B286
:10353000FFF720FF31002800FFF74AFE2800FFF7C1
:103540006FFE0400C0462800FFF76AFEA042F5D1D6
:10355000F8BDC0463604002055150000AA0A000038
:103560008C0400200D4B802258619023D200DB0593
:1035700000B29A61002801DA01229A62C046C04670
:10358000C046C046064B802218699023D200DB0556
:103590009A620122000AC0B29A617047000800488E
:1035A00000040048F0B506000025FF2785B0090299
:1035B00003930BB2029200932B003B40F31801934C
:1035C000029BECB21819009BC0B2184380B2FFF7FF
:1035D000C9FF019B0135039A18700134EBB2E0B2C8
:1035E0009A42E9D205B0F0BD70B504000D00A021EB
:1035F000FFF790FE29002000FFF78CFE2000FFF768
:10360000B1FF0500C0462000FFF7ACFFA842F5D18E
:1036100070BD10B5FFF7E8FF10BDFFFF70B50400E7
:103620000D001248AA21FFF775FE55211048FFF73B
:1036300071FEA0210D48FFF76DFE29002000FFF765
:1036400069FE2000FFF78EFF0600C0462000FFF74E
:1036500089FF0500B042F4D1064B9C4203D1802083
:103660000002FFF77FFF280070BDC04655D500005F
:10367000AAAA0000FCFF000070B50400A0200D0005
:103680000D4BC0011978FFF775FEAA210B48FFF713
:1036900071FE55210A48FFF76DFEA0210748FFF78C
:1036A00069FE29002000FFF765FE2000FFF75AFFA2
:1036B000A842FAD170BDC0468C04002055D5000048
:1036C000AAAA000070B50400C0200D00000201216C
:1036D000FFF750FEAA211548FFF74CFEC02000213D
:1036E0000002FFF747FE55211148FFF743FEC020B7
:1036F00001210002FFF73EFEA0210C48FFF73AFE31
:10370000C0200C4B00021978FFF734FE290020007E
:10371000FFF730FE2000FFF725FF0500C046200020
:10372000FFF720FFA842F5D170BDC04655950000B7
:10373000AAAA00008C04002070B504000D001048F7
:10374000AA21FFF717FE55210E48FFF713FEA0210F
:103750000B48FFF70FFE29002000FFF70BFEA0200B
:10376000094B00021978FFF705FE2000FFF7FAFE6B
:103770000500C0462000FFF7F5FEA842F5D170BD58
:1037800055D50000AAEA00008C04002070B50400A2
:103790000D001048AA21FFF7EDFD55210E48FFF757
:1037A000E9FDA0210B48FFF7E5FD29002000FFF708
:1037B000E1FD802002210002FFF7DCFD2000FFF781
:1037C000D1FE0500C0462000FFF7CCFEA842F5D18F
:1037D00070BDC04655D50000AAAA000070B504000F
:1037E0000D00A021FFF7C6FD29002000FFF7C2FD54
:1037F0002000FFF7B7FE0500C0462000FFF7B2FE2D
:10380000A842F5D170BDFFFF70B504000D000D4852
:10381000AA21FFF7AFFD55210B48FFF7ABFDA02113
:103820000848FFF7A7FD29002000FFF7A3FD2000AF
:10383000FFF798FE0500C0462000FFF793FEA84260
:10384000F5D170BD55D50000AAAA000010B5FFF74C
:10385000DBFF10BD0D4B0E4A58610E4B0902186874
:1038600002431A605A69D2B21143902259618021F1
:10387000D2051068490101431160402191629161B4
:103880001A6805490A401A607047C0460008004897
:103890000000555500040048FFFFAAAA104B114A2A
:1038A00010B558611068104B090203431360536947
:1038B0000E4CDBB21943902351618021DB0518685F
:1038C0004901084318604020986218682040186039
:1038D000D8680143D960136805490B40136010BDD7
:1038E000000800480004004800005555FFEFFFFFA6
:1038F000FFFFAAAA70B505000E00134B00211C881B
:103900002000FFF737FDAA211048FFF7C7FF552118
:103910000F48FFF7C3FFA0210C48FFF7BFFF0D4B77
:1039200019786418A0B2FFF725FD31002800FFF7D1
:10393000B5FF2800FFF716FE0400C0462800FFF779
:1039400011FEA042F5D170BD36040020555500008F
:10395000AA2A00008C04002070B504000D000D4858
:10396000AA21FFF79BFF55210B48FFF797FFA021E6
:103970000848FFF793FF29002000FFF78FFF200082
:10398000FFF7F0FD0500C0462000FFF7EBFDA84261
:10399000F5D170BD55550000AA2A0000902270B5DF
:1039A0000225D2059561C046C046C046C046C04605
:1039B000C04601240D4B94611E680D4931431960C6
:1039C0000C4909885961C04695625861C0469462A5
:1039D0001A6809490A401A60C046C046C046C04637
:1039E000C046C046C046C04670BDC046000800483C
:1039F00055555555A0040020AAAAAAAAF0B58BB027
:103A00000992012208911100354B02901F78354B25
:103A10001B780493344B1D68344B1B789940344B0E
:103A200001911868334BA9621B789A40029B102BB6
:103A30004FD18262012421002F4B05941B6806930D
:103A40002E4B1B7899408BB2210007932C4B1B689F
:103A50009C462C4B1B789940002303911900029C33
:103A6000202C05D1049E059C1E41264236D0826141
:103A7000089C202C0FD1002B01D11A4C6354069CBA
:103A80002669079C264206D0164C665C059C9C4025
:103A90002643144C6654099C013FFFB2002C03D00E
:103AA000002F01D1019CAC616446039E0133DBB25F
:103AB000A661A662082B05D101310A4BC9B25B5C35
:103AC00004930023002FCAD1019B8262AB620BB02A
:103AD000F0BD029B112BADD18261ABE78262C7E7DB
:103AE000E5040020C5040020300700203407002032
:103AF0002007002024070020280700202C07002092
:103B0000180700201C070020F7B501221A4B1C786B
:103B10001A4B19681A4B1B789A40102826D18A62D2
:103B200001263500174B01961B680093164B1B7836
:103B30009D400023AC461D0020280DD1134E019F4F
:103B4000765D1E413E4215D08A610133DBB2082BFF
:103B500002D100230135EDB26646009F013CE4B27C
:103B6000BE61BE62002CE7D18A62F7BD1128D7D1B1
:103B70008A61D5E78A62E8E7E50400203007002083
:103B800034070020180700201C070020C50400206F
:103B9000F0B52C4B85B01B78019301231E00019AD0
:103BA0001F009640284A1168284A8E6212780292B5
:103BB0001A000298824094466046254A1268906234
:103BC000244805782448AF4000689D408762046817
:103BD00003941C00AC402500039C25430560456808
:103BE000019CBD4345609C401D00A54008681C0029
:103BF000284308604868B0434860106802999940BB
:103C00008C40210001436046116051688143134894
:103C100051600078124A98408340126811689943B5
:103C20001160D1680B43D360002319000D4A137053
:103C30000D4A99540133202BFBD180220B4B1A7073
:103C400005B0F0BD34070020300700202407002015
:103C5000200700201C070020180700202C07002048
:103C600028070020E5040020C5040020E604002009
:103C700010B52B4B1B78082B4ED013D8294C032B97
:103C800039D006D8012B28D0022B2AD0254BEE2282
:103C90003AE0062B3AD03DD8042BF7D1012220215F
:103CA000112021E00F2B28D008D81E4C0D2B1FD03F
:103CB00000220E2BEAD12021102015E0802B06D007
:103CC000184CFF2B06D0102BE0D100221FE0FFF78D
:103CD0005FFF10BDF0232370FBE72020FFF714FFE8
:103CE00004E0012200212020FFF788FE8223F2E772
:103CF00000221100F7E70122DDE700222021112038
:103D0000FFF77CFE8222074B1A70E2E70122202196
:103D10000800E9E71020E1E71120FFF7F5FEF1E7E1
:103D2000C4040020E6040020BC224D4BD203996A53
:103D3000F0B50A439A629A6A4A490A409A62B022E6
:103D4000596952030A435A6119009023464ADB0518
:103D50001278102A03D100221A609A60DA601A6879
:103D60004248012402401A608022D868D2010243EE
:103D7000DA601A683E483F4F02401A608022D868D5
:103D8000520302430420DA601A68A2431A60DA6818
:103D90002243DA601A6882431A60DA680243DA6002
:103DA00010221D6895431D60DD682A43DA604022B9
:103DB0001D6895431D60DD682A43DA601A682E4D40
:103DC0002A401A608022DD68D2042A43DA601A6829
:103DD0002A4D2A401A608022DD68D2052A43DA6023
:103DE0001A68274D2A4080251A60DA68ED022A43B6
:103DF000DA60244A1668A6431660D6683443D46055
:103E00001E683E401E60DC683C40DC6080234C69DC
:103E10001B0323434B611C4B1C4C1E681C4F264349
:103E20001E601E683E401E60DE683443DC604B69E5
:103E30001D434D611368174D2B401360D468164B1A
:103E40001C43D460116829401160D1680B43D360D2
:103E5000136883431360D3681843D060F0BDC04635
:103E600000100240FFFFA1FF0C070020FFBFFFFF73
:103E7000FFFFEFFFFFEFFFFFFFFFFFFBFFFFFFBFB6
:103E8000FFFFFBFF0004004800080048555555554A
:103E9000AAAAAAAAFFFFAAAA000055550D480E4AD1
:103EA000038810B50D49934202D10A7801320A7095
:103EB00090220424D205013394620380084B1869D0
:103EC0009461084C0B7862691B02D2B2134380B232
:103ED000636110BD8A040020FFFF000088040020F9
:103EE00000080048000400481A4B10B55861C02370
:103EF000DB01C018184B80B2984203D890230122EE
:103F0000DB059A62154A164B1068090203431360D9
:103F10005369DBB21943902351610821DB05996194
:103F200080211868C9000143196020219962C046A8
:103F3000C046C046996118680A4C20401860D9688C
:103F40002140D96001219961136807490B40136032
:103F500010BDC04600080048FF1F000000040048D4
:103F600000005555FFFBFFFFFFFFAAAA124B586147
:103F7000C023DB01C018114B80B2984203D89023B4
:103F80000122DB059A620E4B0E4A186809020243B1
:103F90001A605A69D2B21143902259610821D205A0
:103FA0009162C046C046C0469161073991611A6866
:103FB00005490A401A60704700080048FF1F0000CA
:103FC0000004004800005555FFFFAAAA0E4B04222A
:103FD00058619023DB059A62C022D20180180B4AF7
:103FE00080B2904201D801229A62C046C046C046C3
:103FF000C046074B012218699023DB059A61000A2D
:104000000332C0B29A61704700080048FF1F0000E9
:104010000004004870B5174B04001D780E00002DF9
:1040200001D18404A40C802000218001FFF79EFFB1
:10403000AA211148FFF758FF55211048FFF754FFF8
:10404000A0210D48FFF750FF002D04D0802029004B
:104050008001FFF78BFF31002000FFF745FF2000B4
:10406000FFF7B4FF0500C0462000FFF7AFFFA842EE
:10407000F5D170BD8C04002055550000AA2A00001F
:1040800070B504000D000D48AA21FFF76FFF552100
:104090000B48FFF76BFFA0210848FFF767FF2900D7
:1040A0002000FFF763FF2000FFF790FF0500C046E8
:1040B0002000FFF78BFFA842F5D170BD55550000D9
:1040C000AA2A000070B5114B04001B780D00002BCC
:1040D00001D18404A40CAA210D48FFF705FF552146
:1040E0000C48FFF701FFA0210948FFF7FDFE29005A
:1040F0002000FFF7F9FE2000FFF768FF0500C0462B
:104100002000FFF763FFA842F5D170BD8C040020AA
:10411000AA0A000055050000F7B50D001600FF279C
:10412000000203B24C7A01932A7AE3B2A24202D28D
:104130006B720020FEBD20006A683840D15C019B94
:104140000134184380B2B047A4B2EDE7F7B50D00D3
:10415000042701924C7A000203B2A6B200932B7A94
:10416000B34202D26C720020FEBD00986B682043FF
:10417000195D80B2019B98476B681A5D094B8242BA
:1041800005D01A683A431A6002229A61E7E71A6872
:104190000134BA431A60DA6801363A43DA60E4B2AD
:1041A000B6B2DCE700040048022907D10F4B104AE1
:1041B000984218D0904209D1180007E0032906D18F
:1041C0000A4B0B490B4A98420BD10800704704294F
:1041D000FCD1064B064A984205D006499042F4D0DD
:1041E000054A8842E6D11000F0E7C04638040020B6
:1041F0004C040020600400207404002070B5060008
:104200000D0005243000013CFFF7ACF9E4B22900B1
:104210003000FFF7AFF86D08002CF3D170BDFFFF41
:1042200070B50400A0200D0000020221FFF7E6FF98
:10423000AA211048FEF7CCFF55210F48FEF7C8FF12
:10424000A0210C48FEF7C4FFA0200C4B00021978F7
:10425000FFF7D4FF29002000FEF7BAFF2000FEF789
:10426000DFFF0500C0462000FEF7DAFFA842F5D1C7
:1042700070BDC04655150000AA0A00008C0400203D
:1042800070B51C4B04001B780D00072B27D8A0200D
:1042900000210002FFF7B2FF2000FFF763F90021C1
:1042A000C0200002FFF7AAFFAA211348FFF762F817
:1042B00055211248FFF75EF8A0210F48FFF75AF882
:1042C00029002000FFF756F82000FFF74BF9050002
:1042D000C0462000FFF746F9A842F5D170BDA020E6
:1042E00010210002FFF78AFF2000FFF73BF91021A1
:1042F000D6E7C0468C04002055D50000AAAA0000CD
:10430000F7B501230225294F01923A780091054320
:1043100093400421A020264E2D049BB229433268ED
:10432000C00100F055FF040001283DD13B78092071
:104330009C4005437830A3B232682900FF3000F07A
:1043400047FF040001282FD13B7832689C402900A8
:10435000A3B2002000F03CFF0400012824D1009B00
:10436000180AFEF773FB3B7832689C402900A3B221
:1043700000F02EFF0400012816D16B461878FEF7D6
:1043800065FB22003B7829009A4093B2326800F026
:104390001FFF0198FEF75AFB3B7832689C402900CA
:1043A000A3B200F015FF0400E0B2FEBD1407002028
:1043B00010070020F7B501230225274F00903A7817
:1043C0000191054393400421C020244E2D049BB24B
:1043D00029433268800100F0FBFE0400012838D137
:1043E00009231D433B78C0209C403268A3B22900BA
:1043F000400000F0EDFE040001282AD13B7832682D
:104400009C402900A3B2002000F0E2FE0400012835
:104410001FD1019B180AFEF719FB3B7832689C40BC
:104420002900A3B200F0D4FE0400012811D16B468C
:104430001879FEF70BFB22003B789A4093B2009A62
:1044400014430922E1B209041143326800F0C0FEAE
:104450000400A0B2FEBDC0461407002010070020D3
:10446000C74BC84AF0B51A60C74A8BB01A6002221F
:104470005A60A02212019A600493049BDB68002B0F
:10448000FBD19022049BC14912031960C04B1868EC
:1044900002431A6080220991920219681142FCD0ED
:1044A000012259680A435A608022596852020A431D
:1044B0005A608022596852030A435A608022196860
:1044C00052040A431A608022920419681142FCD0F7
:1044D0001121B04AB04C11605A680E398A4311005C
:1044E00002220A435A608022196B0A431A6380220F
:1044F000D96912040A43DA61A84BE381BC231B6823
:104500009847A74B6382A74B238262B6FFF70CFC48
:10451000F022A54B1A70049B099AA44E1A603278B7
:10452000202311009943D2291BD1A149A148C97860
:10453000C3780224FF2904D1FF3B1C00631E9C4169
:10454000E4B29D4BDB78FF2B00D003249B4BDB7840
:10455000FF2B00D004249A4B9A4F1C703860D22A4B
:1045600059D03378F22B05D10022023B3370954BA2
:104570001B68DA703578D02D00D08AE2914E306811
:10458000C378802B00D084E28D4B1978FFF70CFEA6
:1045900000233060C570068804004372C07AF5B20B
:1045A0001038232800D972E2FBF7E6FFDE01010292
:1045B00041024502710271027102710271027102BF
:1045C00071027102710271027102710238008E0073
:1045D000E100E60012011C0123015F0175017D016C
:1045E000710271027102710271027102BD019C00BF
:1045F000450084012100FFF7D7FD01230135EDB20D
:10460000A542F7D3002B00D0386080223B68DA70D7
:10461000D0233370A5E700230125F1E7E17B0F29C3
:1046200000D95AE209013143237AA278C9B26068FD
:10463000FEF7B8FF54E0E17B0F2900D94DE2636833
:1046400009019C46237AA27802935F4B0E4376B20F
:104650005969F0B2C9B20002014359611F00002E2E
:1046600003DA90210120C9058862FF2559692D02CE
:10467000294011435961C046902080260023C0057F
:10468000F60005958661C046C046C046C046C04695
:10469000C046C046C046C046C04665464B4901328A
:1046A0000969D2B2090AE95486627969059D013324
:1046B0002940114379610299DBB29942E2D2012289
:1046C000866282616372DDE03C23E17B0A009A43EB
:1046D00000D002E2237AA27829436068FEF77EF9CF
:1046E0006072CFE0E17B3C230A009A4300D0F4E102
:1046F000636829439C46237AA5780293324B5A6912
:104700001F292FD8802001430902D2B20A435A61DF
:10471000FF27902104265A693F023A40C9052A43DF
:104720005A618E628E61C046C046C046002205971F
:104730008E62C046C046C0466746244801350069BF
:10474000EDB2000AB8545869059F384028435861B3
:104750008E61C046C04601320298D2B29042E7D282
:1047600062728FE0D2B2090211435961D0E7237A15
:10477000A278E17B29435AE7E17B3F23A6E7C046C5
:1047800000300040CCCC000055550000AAAA000023
:104790000010024000200240006000403CA5FFFFE6
:1047A0004108000885080008E6040020A404002051
:1047B0004C04002038040020600400207404002011
:1047C000A2040020900400200008004800040048D3
:1047D000227AE17BA3780092002229436068FEF7E9
:1047E000C5F87DE7E17B227AA37829430092012274
:1047F000F4E7BB4BE17B586929430E02C0B230435A
:104800006568A278277A5861902004266031C00537
:10481000C9B286621E001F2901D801218162FF20D2
:1048200059690002014011435961C046AD49002356
:104830008C46C046C046C046C046C046C046C0467C
:10484000614609690132090AE9547169D2B201402D
:1048500001331143DBB271619F42EAD290220421FD
:10486000D2059161033991612CE70025267A6768AA
:104870007608FFF713FB0135EDB238800237AE4200
:10488000F7D26572984B1B6819889A7A52181A8069
:10489000D822DA70FDE0E17B237AA27829436068B0
:1048A000FEF7E6FA1CE7E17B237A29430131A2787F
:1048B000FF31F4E76368E17B9C46894B29435A69E1
:1048C0000902D2B20A43A678277A5A6190220421BB
:1048D000FF20D2059162033991625A6900020240B9
:1048E00032435A6100227F4D0290C046C046C04606
:1048F000C046C046C046C046C0466046296901362B
:10490000090A815459690298F6B2014001323143D3
:10491000D2B259619742E8D290230421DB05996114
:10492000012199611CE7A3786668277A002B02D1E0
:104930002802FFF733F86A4A9020002304259446A2
:10494000C0058562C046C046C046C0466246116981
:1049500085618AB2120AF2545A1C0233D2B2DBB217
:10496000B1549F42EDD2ADE6E37B1E2B0BD1C020AC
:10497000B6092233F1B200029D43FEF7FBFC237A15
:10498000A2788021F6E61C2B00D07BE7A0208121B5
:10499000C001FEF7EFFC8020F609F1B20002FEF73D
:1049A000E9FCA0200021C001FEF7E4FC6AE7E37BFC
:1049B000FE2B00D066E77609F1B24C48FEF708FC02
:1049C0001F21636829409C46454B09025A69A67815
:1049D000D2B20A43277A80215A619022C900D205B7
:1049E00091610121FF209162033191625A690002B5
:1049F000024032435A61C04600223A4D0290C046FE
:104A0000604629690136090A815459690298F6B24B
:104A1000014001323143D2B259619742EFD2902323
:104A20000421DB0599618021C900996278E7237A26
:104A3000A27860219EE6E37B002B20D18033F6092B
:104A40001D43F3B20393FF20039B26499B004A6951
:104A500003402748024013434B61C0209021039B31
:104A6000C905C000DB004A690340224802401343E5
:104A70004B61227AA378290000920022AEE6012B36
:104A8000E1D140217604760E31430391DBE7C32365
:104A9000E370194B1D78F02D00D05EE3124E3468A0
:104AA000E378982B00D058E3144B20001978FFF7D7
:104AB0007BFB00233060C370E07A23881038E570F8
:104AC000DEB2062800D946E3FBF756FD1A00AE0118
:104AD0007A027F023F0205031D03C423D8E7C046C4
:104AE000000800480004004890040020FF3F000038
:104AF00003FF0000FFF90000A4040020A20400202E
:104B0000E37B002B06D130008038C0B2AC4A2100D4
:104B1000FFF71CFBE37B012B06D130008038C0B2CD
:104B2000A84A2100FFF7F8FAE37B022B06D13000F8
:104B30008038C0B2A44A2100FFF7EEFAE37B042BD1
:104B400006D130008038C0B2A04A2100FFF7FEFA3B
:104B5000E37BFC2B06D130008038C0B29C4A210098
:104B6000FFF7F4FAE37B0A2B06D130008038C0B29D
:104B7000984A2100FFF7EAFAE37BFD2B15D13F208D
:104B8000238830409B0905936B4680261B7D064396
:104B90000793677ABBB2029333021BB20893237A5E
:104BA000029A934200D3A5E06772E37B1E2B06D1E5
:104BB00030008038C0B2884A2100FFF7C7FAE37B93
:104BC0000C2B17D11F20304080260643C02025889B
:104BD000A5216D09EDB2C001FEF7CCFB29007F488D
:104BE000FEF7C8FB677A35023D43237ABB4200D308
:104BF000C8E06772E37B1C2B21D1AA217848FEF71D
:104C000089FB55217748FEF785FB20217448FEF784
:104C100081FB30008038744A2100C0B2FFF796FA59
:104C2000802090210002FEF775FB80200021000209
:104C3000FEF770FB8020F0210002FEF76BFBE37BA8
:104C4000272B06D130008038C0B2684A2100FFF718
:104C500063FAE37B1F2B21D1AA216548FEF75AFB9B
:104C600055216448FEF756FB20216148FEF752FBB0
:104C700030007038604A2100C0B2FFF767FA902018
:104C800090210002FEF746FB902000210002FEF773
:104C900041FB9020F0210002FEF73CFBE37B6F2BF1
:104CA00006D130008038C0B2544A2100FFF74EFAD6
:104CB000E37B922B06D130008038C0B2504A2100ED
:104CC000FFF72AFAE37B932B06D130008038C0B27D
:104CD0004C4A2100FFF720FA0222E37B9343182B72
:104CE00000D032E13000484A6030C0B22100FFF706
:104CF00013FA2AE100214548FEF73CFBAA2144486B
:104D0000FEF7A8FD55214348FEF7A4FDA021404829
:104D1000FEF7A0FD6B46187D3F4B0799C01880B287
:104D2000FEF728FB089D63683D43ADB2D95D2800BE
:104D3000FEF790FDC0462800FEF714FC0690280000
:104D4000FEF710FC069B8342F4D163680699DA5D96
:104D5000324B8A420FD1029A1968013292B2029202
:104D6000042291431960D96801370A43DA600222AC
:104D7000FFB29A6213E7042219680A431A600222FA
:104D80009A610CE7AA212648FEF7F4FA5521254836
:104D9000FEF7F0FAA0212248FEF7ECFA636828003B
:104DA000D95DFEF7E7FAC0462800FEF7DBFB02906C
:104DB0002800FEF7D7FB029B8342F4D115E7C046DB
:104DC0005939000881420008F53800088D3700087D
:104DD0004531000839370008C5360008FFFF0000DC
:104DE000AA8A000055850000E93500081D36000834
:104DF000AA9A00005595000013360008793600087D
:104E000009380008DD3700084D38000869FD00004A
:104E100055550000AA2A000069FDFFFF0004004864
:104E200055D50000AAAA0000E37B002B04D1D24A8A
:104E300021003000FFF770F9E37B012B04D1CF4A4A
:104E400021003000FFF768F9E37B032B04D1CC4A43
:104E500021003000FFF760F9E37B042B04D1C94A3D
:104E600021003000FFF758F9E37B0A2B04D1C64A32
:104E700021003000FFF750F9E37B0B2B04D1C34A2C
:104E800021003000FFF748F9E37BFE2B29D1218870
:104E9000BF484909C9B2FEF79BF91F23677A1E4034
:104EA000AA21BBB2BB480293FEF74EF95521BA487E
:104EB000FEF74AF92021B748FEF746F93302069378
:104EC000237A029A934247D2902100206772FEF71C
:104ED0003BF900210800FEF737F9F0210020FEF72A
:104EE00033F90222E37B9343182B04D1A54A210016
:104EF0003000FFF711F9E37B922B04D1A74A210080
:104F00003000FFF709F9E37B932B1ED1AA21A148BA
:104F1000FEF75EF95521A048FEF75AF920219D4879
:104F2000FEF756F9300080389D4A2100C0B2FFF7E5
:104F3000F3F890210020FEF74BF900210800FEF75E
:104F400047F9F0210020FEF743F9F4232288E370AB
:104F5000A37A9B18238000E1069DA0213D43ADB2BA
:104F60002800FEF7F1F863682800D95DFEF7ECF839
:104F7000C0462800FEF710F905902800FEF70CF94E
:104F8000059B8342F4D163680599DA5D854B8A42BB
:104F90000FD10421029A0137013292B202921A68AB
:104FA000FFB28A431A60DA680A43DA6002229A6220
:104FB00086E704211A680A431A6002229A617FE791
:104FC00030006030C0B2784A90E6E37B042B06D113
:104FD00030008038C0B2754A2100FFF79DF8E37BAE
:104FE000052B04D1714A21003000FFF795F8E37BCF
:104FF000062B06D130008038C0B26D4A2100FFF781
:105000008BF8E37B072B04D1694A21003000FFF7BE
:1050100083F8E37B0A2B06D130008038C0B2654AA2
:105020002100FFF793F8E37B0B2B04D1614A2100A9
:105030003000FFF78BF8E37B082B05D13000803878
:10504000C0B22100FDF752FEE37B092B03D1210002
:105050003000FDF74BFEE37B002B1CD1FF22803399
:105060001E4323884F48DB09DBB29D0041692A407B
:10507000514DDB0029400A4342619022C020D205F5
:10508000C000516903404D4801400B43536121006A
:105090003000FDF761FDE37B012B00D055E723884D
:1050A000404A5B04580E40230343FF209B00516994
:1050B0000340414801400B4390215361C9054B69AE
:1050C0003E4A30001A4080239B0013434B6121006D
:1050D000FDF742FD39E7DE01657AB6B2237AE8B220
:1050E000AB4201D2607230E763680235195C01306F
:1050F000C0B21B5C0902C918400889B23043FDF7F1
:10510000A9FFADB2EAE7E37B002B04D12C4A2100D2
:105110003000FFF701F8E37B012B06D1300040306F
:10512000C0B2284A2100FEF7F7FFE37B022B06D12D
:1051300030004030C0B2244A2100FEF7EDFFE37B8F
:10514000022B00D001E7300040301F4A2100C0B2DE
:10515000FEF7E2FFF9E6C323E3701C4B1B78F02B4C
:1051600001D1FFF7D8F9832B01D0FFF7D4F9FEF76F
:105170007FFDFFF7D0F9C0465932000821420008F0
:10518000E93400080D33000875340008E9330008DD
:10519000FF3F0000AA0A000055050000C9320008C0
:1051A0009D3200080004004875330008212E0008D5
:1051B000D12D0008812D000803FF0000FFF9000039
:1051C0008140000815400008C5400008E6040020A2
:1051D000F0B5474680B4061C081C000C102801D509
:1051E000162700E004270007000F8046FF2001403B
:1051F0005468251C1D439C43F60313850AD5C046FD
:10520000C046C046C046C046C046C04694801383D0
:10521000958002E0012000F081F801390AD4381CA1
:1052200000F07CF8C046948013839580C046C04649
:105230007600E2E7381C013800F070F894801383A0
:105240009580042000F06AF8108A184001D0FF20F1
:1052500061E0C046C046C046C046C046C0469480D5
:105260009580108A184055D001200226B04552D0B2
:105270000921168A1E40FCD1012000F04FF89480CD
:10528000C0469580C04603E0C046C046C046C04602
:10529000948095807600108A1840EFF300804000DB
:1052A000C00F0643381C023800F038F8948095800F
:1052B000022000F033F80139EAD5138594800120EB
:1052C00000F02CF813839580301C80210223994034
:1052D0000E401BD1002341085E4149085E41490848
:1052E0005E4149085E4149085E4149085E414908FE
:1052F0005E4149085E4149085E41760808D340088E
:10530000FF21084048400002013004E00E2002E086
:10531000092000E0002080BCB846F0BD0138FDD176
:105320007047C04603685A0003D45B005B08C0188E
:105330007047802212061343F9E7C046F0B557467E
:105340004E46DE464546E0B5814683B0924600298A
:1053500025D04B1E9B46002701935B46FB18DC0FB4
:10536000E4184B466410E5005E193000FFF7DAFFE1
:10537000019B8046A3420BD0280008304844FFF729
:10538000D1FFD04506D80138504509D2671CE4E763
:10539000504505D9A74202D0631E9B46DDE7002693
:1053A000300003B03CBC90469946A246AB46F0BDE7
:1053B000012809D0022805D0002801D0002070471C
:1053C0000248FCE70248FAE70248F8E7A55A000855
:1053D000BD5A0008B15A000830B5234B83B0050010
:1053E0008C1E002B26D001A9200000E000BF002861
:1053F0001CD001992200FFF7A1FF041E16D0FFF771
:1054000091FF6368A864012B2AD0201D002B23DBA9
:10541000FFF788FF0023E8642B650368002B0FDB90
:10542000FFF780FF2861002003B030BD0023092072
:105430002B61F9E70D480E49091AC9100191D9E706
:105440001801000FFFF7B4FF2861431E984108239D
:10545000404298430930E7E70123E8642B65DCE725
:10546000002305202B61DFE700000000B86300087F
:1054700088640008036810B50400DA0705D44830D2
:105480009B070ED500F06CFC23685A070ED51A074F
:1054900013D5DB0604D42000D130FF3000F06CFCC3
:1054A00010BD00F059FC23685A07F0D42000D0301A
:1054B00000F05AFC23681A07EBD420005130FF306B
:1054C00000F056FC2368E4E70368002B00D01B18AB
:1054D00018007047092070477047C04670B5040037
:1054E0000D0008E02B6C2A00636121000120236974
:1054F0009847082807D1296C2000FFF76DFF002886
:10550000F0D000F083FE0728FBD10020296CFFF7C4
:10551000E3FF281D00F00AFCF0B5CE46474680B5F3
:10552000C3682E4C9846A5448369060014000431D4
:10553000402205A8994600F071FE002304AD0493B3
:1055400023E0F0222B6C5200736129007CA800F04C
:1055500065FE7CAA31003369200098478A9B0700CA
:105560006B6403934B460095019332003300210096
:105570000120C04700281FD1F0227CA9520028003A
:1055800000F04CFE0024082F1FD1296C3000FFF7DB
:1055900023FF611E8C41070009340028D1D0AB6B7A
:1055A00010216B644B462143019300953300320078
:1055B0000120C047002800D009273800F5239B00B0
:1055C0009D440CBC90469946F0BD072FF4D12000B5
:1055D000296CFFF781FF05A800F0A8FB2CFCFFFF5A
:1055E000406C704770B5CB6BFAB00B6404000E00D2
:1055F0004022043103A800F011FE01235B42029314
:1056000006E002AA210023699847050008280AD16C
:10561000129B200019000193FFF7DEFE0028F0D056
:1056200009207AB070BD02A8FFF724FF062DF7D13C
:1056300031002000FFF752FF10B58261DA6BC160C4
:105640001A6419000022FFF767FF10BD436970B5A7
:105650000B64C36804000D00002B15D10A002369F8
:10566000010002209847072807D0082803D1290005
:105670002000FFF733FF00F0C9FD0020296CFFF781
:105680002BFF281D00F052FB0122FFF745FF00F021
:10569000BDFDC046C36810B5002B05D0CB6B002202
:1056A0000B64FFF739FF10BDFFF79CFFFBE7C04617
:1056B0007047C046836810B5002B02D0010001205E
:1056C000984710BD012906D0002906D003390220D1
:1056D000012900D970470120FCE7002B08D10F2ACF
:1056E00006D8920082185268009B00201A60F1E7E9
:1056F0000220EFE700B585B003AB0A00009300215C
:105700000023FFF7DFFF039805B000BD012906D095
:10571000002906D003390220012900D97047012051
:10572000FCE7002B08D10F2A06D8009B92001B68CB
:10573000821853600020F1E70220EFE700B585B042
:1057400003AB039200930A0000230021FFF7DEFF62
:1057500005B000BD70B51A4CD36BA54413640600A8
:105760000D0019A8111D402200F058FD01235B42D5
:10577000189314E00C2118A802AAFFF7DFFF2900F4
:1057800018A8B047002812D1069B18AA02A9083011
:1057900001939847040005280AD0092807D0289BC0
:1057A00002A819000193FFF717FE0028E2D0092490
:1057B00018A8FFF75FFE200090239B009D4470BD5A
:1057C000C0FDFFFFF0B5DE4657464E464546E0B504
:1057D000160003220D0011008BB01F000193EB6C2B
:1057E00001401C1D009107A91B688B460894002FDF
:1057F0006BD01A0C1B045946079302230B72FD331E
:1058000013409B004A72E418009B022B00D1AC6B42
:105810002B6DDB0747D40023059308330340029325
:105820002768002F00D112E1019B022B49D0638829
:10583000278898460434012340469A469843AB6C27
:105840000F21994681443000FFF754FF0021814524
:1058500006D8390053469943494488428941494210
:1058600043465A0002231340012217403B43012BB9
:105870003AD0002B30D0022B1BD12368009A5F0056
:105880007F08002A67D1002906D0029A002A00D199
:105890007CE0002F00D1A9E0002B00DA04340137AE
:1058A000BF00E419BCE75946300000F00BFB0028AC
:1058B00010D009200BB03CBC90469946A246AB469E
:1058C000F0BD636808349846B5E71B0207935B4652
:1058D0001A8199E70820EDE7009B002B02D00029F0
:1058E00000D08DE004349BE7009B002B1AD10029E7
:1058F00016D02368DF0F63689A1CDAD02A0058326A
:105900000692013300D1BDE0201DFFF7DDFD06AB9F
:1059100001003A00280000E000BF002800D082E02B
:1059200008347DE70D2130002F6AFFF7E3FE874240
:10593000F6D1AB6A9C42F3D12000FFF7F3FC0F21B4
:1059400002003000FFF7FAFE30002A000021FFF7C6
:10595000F5FE0720AEE72B6A0D2130009846FFF7D1
:10596000C9FE804501D0236896E7AB6A9C42FAD114
:105970000023EB6204332B63231DAF626B63236848
:10598000002B00DA86E00123059388E7002F2DD055
:1059900058239C46AC4463460393231D9946002339
:1059A000984606AB220004933B004C464746B2465D
:1059B00098462E00914603E004342F00454542D01E
:1059C000039B20000693FFF77FFD049B010000224C
:1059D00030007D1C00E000BF0028EDD04346B846F3
:1059E00035004C4656461F009845BCD10D2130006D
:1059F000FFF780FE069B28626B62AC62062059E7C7
:105A00002000FFF78FFC04340700AC63280000E09F
:105A100000BF002800D14CE730003A000F21FFF70B
:105A20008DFE072046E707000D213000FFF762FEDC
:105A30002862022F2BD1069BEB622B002C336B626A
:105A4000AC62062036E735004C465646CEE759464E
:105A5000300000F037FA002800D02AE7059B002B21
:105A600000D137E70F213000FFF744FE0E2102007E
:105A70003000FFF763FE3000094A0F21FFF75EFE9A
:105A8000072017E70D213000FFF734FE2862069B40
:105A90006B62D5E738000130800020184DE7C04622
:105AA0000000000010B50023FFF78CFE10BDC046BB
:105AB00010B50123FFF786FE10BDC04610B50223C6
:105AC000FFF780FE10BDC046F0B5CE46474680B514
:105AD0000500C3B014001E00012955D000294BD089
